S0170000434C4F434B5F4558414D504C4531322E73726563D3
S214400000C0244020390440003504400035044000F8
S2144000103504400035044000350440000000000030
S2144000200000000000000000000000003504400012
S21440003035044000000000003504400061064000E2
S2144000403504400035044000350440003504400087
S2144000503504400035044000350440003504400077
S2144000603504400000000000B1024000C5024000D8
S214400070D9024000350440003504400035044000B5
S214400080ED024000010340003504400035044000C6
S2144000903504400035044000350440003504400037
S2144000A03504400035044000350440003504400027
S2144000B03504400035044000350440003504400017
S2144000C03504400035044000350440003504400007
S2144000D000000000350440000000000035044000E9
S2144000E035044000350440003504400035044000E7
S2144000F035044000350440003504400035044000D7
S21440010035044000350440003504400035044000C6
S2144001103504400000000000000000000000000021
S21440012035044000350440003504400035044000A6
S214400130350440000000000035044000350440000F
S21440014010B5054C237833B9044B13B10448AFF3CC
S21440015000800123237010BD3004402000000000C2
S21440016040084000084B10B51BB108480849AFF39B
S21440017000800848036803B910BD074B002BFBD02E
S214400180BDE81040184700BF00000000400840008F
S21440019034044020400840000000000010B50A48E3
S2144001A00A4B984700203E21094B9847094CA047E8
S2144001B00028FCD00020084B9847084B9847084832
S2144001C0024B984710BD00BF00A3E111E505400073
S2144001D07D034000D103400015034000D104400099
S2144001E0001BB70010B54FF40042184B5A600A2067
S2144001F0174CA0470B20A0470C20A0471020A04734
S2144002001120A047134B4FF480321A61C3F8A02048
S2144002101A63A3F580634FF400625A61C3F8A020C6
S2144002205A66C3F890205A651A62C3F88420196F3C
S21440023021F400611967596F21F400615967C3F8CA
S214400240C020C3F8D420C3F8B02010BD50180E40CC
S214400250E103400000120E40C06C7047806C70474F
S2144002602DE9F041044688460E4B98470546204601
S2144002700D4B9847054013D00C4C04F1600623689C
S214400280434508D16168294205D0E368404698470F
S214400290636825EA0305B44202D01034002DEED13F
S2144002A0BDE8F081590240005D0240004C04402009
S2144002B008B502480A21024B984708BD000E0E407A
S2144002C06102400008B502480B21024B984708BD22
S2144002D000100E406102400008B502480C21024B57
S2144002E0984708BD00120E406102400008B502481B
S2144002F01021024B984708BD00140E406102400092
S21440030008B502481121024B984708BD00160E401A
S21440031061024000184A136B23F0030343F00103C5
S2144003201363936E13F0080F03D009E0013B03D12B
S2144003301DE04FF4805310498A6E12F0080FF5D036
S2144003400D4A136B23F0700318431063906E10F041
S214400350080004D000207047013B03D109E04FF469
S214400360805305498A6E12F0080FF5D07047012079
S21440037070470120704700BF00060E4038B10E4956
S2144003800B6A0E4A1A400E4B13430B6270470A48DC
S214400390036A0C4A1A400C4B1343090289B21943AC
S2144003A001620246936E13F0010FFBD0024A116AB7
S2144003B0064B0B431362704700060E40FCFFC8FE18
S2144003C002003701FCFFC8FF01003700000037017C
S2144003D0024B986E00F48030704700BF00060E4017
S2144003E03F281ED81F280CD8114B9A6901238340FA
S2144003F01A40934217D0012383400D4A13610020D0
S21440040070470B4BD3F808212038012383401A400D
S21440041093420AD001238340054AC2F800310020A7
S214400420704701207047002070470020704700BF8B
S21440043000060E40FEE700BF08B5194B194A9A421F
S21440044003D0194B164A9A4204D3184B184A9A427C
S21440045010D31BE012490A1D164B9B1A23F00303C8
S2144004600433104A134452F8040B41F8040B9A42E2
S214400470F9D1EAE7104B114AD21A22F003021A4485
S214400480043B002143F8041B9342FBD10C4A0D4B1E
S21440049023F07F0393600C4B98470C4B9847FEE73E
S2144004A0000040204008400030044020C004402067
S2144004B0300440203304402034044020C30440200D
S2144004C000ED00E000004000D1064000710640000C
S2144004D03D4B1B6B03F00303012B12D013B1022BD1
S2144004E02CD05AE0394B5B6913F0800F04D04FF4A0
S2144004F00042374B1A6050E04FF4FA42344B1A60D1
S2144005004BE0314B1B6A13F0807F03D0314A304BAF
S2144005101A6042E0304A2E4B1A602B4B1B6A03F09F
S2144005207003102B02D0202B04D036E02B4A284BE9
S2144005301A6032E0274A264B1A602EE0224B1B6A8E
S21440054013F0807F03D0234A214B1A6012E0224AE0
S2144005501F4B1A601C4B1B6A03F07003102B02D013
S214400560202B04D006E01D4A194B1A6002E0194AB7
S214400570174B1A60144B1B6B03F00303022B0CD172
S214400580114A936A926A1248C3F30A41036801FB10
S2144005900333D2B2B3FBF2F303600B4B1B6B03F097
S2144005A07003702B07D10A4A13680D49A1FB031349
S2144005B05B0813607047044B1A6B0549C2F302127E
S2144005C00B68D3400B60704700060E4010180E4074
S2144005D000004020001BB70000093D0000127A00D2
S2144005E0ABAAAAAA144B984204D84FF08062134B89
S2144005F01A607047124B984203D8124A0F4B1A6043
S2144006007047114B984203D8104A0C4B1A607047FB
S2144006100F4B984203D80F4A084B1A6070470E4B50
S214400620984204D84FF00422044B1A6070470B4A95
S214400630024B1A60704700BFFF2C3101000C0E4081
S214400640FF59620200010004FF8693030002000483
S214400650FFB3C40400030004FFE0F50500050004F2
S214400660024A136801331360704700BFBC04402041
S21440067008B5114B9847114B9847114B42F6DF622D
S2144006805A60E0210F4A82F8231000229A6007221F
S2144006901A600D484FF480340C4AC36B13F4803F05
S2144006A001D0446300E00463116813685B1AB3F535
S2144006B0FA7FFAD3F1E700BF9D014000E501400014
S2144006C010E000E000ED00E000120E40BC044020C8
S2144006D070B50F4E0F4D761BB61018BF002405D0D0
S2144006E0013455F8043B9847A642F9D10A4E00F02B
S2144006F095F80A4D761BB61018BF002406D0013474
S21440070055F8043B9847A642F9D170BD70BD00BF6E
S21440071028084000280840003008400028084000CC
S214400720024B13B1024800F005B8704700000000C5
S21440073041074000014600200246034600F016B836
S21440074038B5084B084DED1AAC1018BFED1805D05B
S214400750013C55F8043D9847002CF9D1BDE8384097
S21440076000F066B83C084000400840002DE9F047DD
S214400770264C06468846914625689A46D5F848410E
S214400780002C3AD060681F2819DC411C86B104EB67
S21440079080050122022EC5F8889002FA00F2D4F8AD
S2144007A0883143EA0203C4F88831C5F808A11ED050
S2144007B0831C6160002044F82380BDE8F087144B1A
S2144007C003B34FF4C870AFF300800446D0B1D5F8F9
S2144007D0483100270121036038466760C5F8484124
S2144007E0C4F88871C4F88C71002EE1D0CFE7D4F8F5
S2144007F08C311A43C4F88C21DAE705F5A674C5F89F
S2144008004841BFE74FF0FF30BDE8F087180840008A
S214400810000000004300000008004020F8B500BF7C
S214400820F8BC08BC9E467047210740006501400062
S214400830F8B500BFF8BC08BC9E4670474101400072
S21440084000093D000000000000000000F4024020C7
S2144008505C034020C403402000000000000000006D
S2144008600000000000000000000000000000000043
S21440087000000000000000000000000014084000D7
S2144008800000000000000000000000000000000023
S2144008900000000000000000000000000000000013
S2144008A00000000000000000000000000000000003
S2144008B000000000000000000000000000000000F3
S2144008C000000000000000000000000000000000E3
S2144008D000000000000000000000000000000000D3
S2144008E000000000000000000000000000000000C3
S2144008F001000000000000000E33CDAB34126DE660
S214400900ECDE05000B0000000000000000000000C8
S2144009100000000000000000000000000000000092
S2144009200000000000000000000000000000000082
S2144009300000000000000000000000000000000072
S2144009400000000000000000000000000000000062
S8044004397E
