:020000040040BA
:1000000078314020E1164000651740006517400038
:1000100065174000651740006517400000000000AC
:100020000000000000000000000000006517400014
:1000300065174000000000006517400015224000D1
:1000400065174000651740006517400065174000C0
:1000500065174000651740006517400065174000B0
:100060006517400000000000050C40001D0C40001A
:10007000350C40003D2240006517400065174000E8
:100080004D0C4000650C40006517400065174000AE
:100090006517400065174000651740006517400070
:1000A0006517400065174000651740006517400060
:1000B0006517400065174000651740006517400050
:1000C0006517400065174000651740006517400040
:1000D00000000000651740000000000065174000A8
:1000E0006517400065174000651740006517400020
:1000F0006517400065174000651740006517400010
:1001000065174000651740006517400065174000FF
:100110006517400000000000000000000000000023
:1001200065174000651740006517400065174000DF
:10013000651740000000000065174000651740008B
:1001400010B5054C237833B9044B13B10448AFF311
:1001500000800123237010BDBC0840200000000077
:1001600048454000084B10B51BB108480849AFF39B
:1001700000800848036803B910BD074B002BFBD073
:10018000BDE81040184700BF00000000484540008F
:10019000C0084020484540000000000080B582B003
:1001A00000AF78607B68072B30D801A252F823F0AB
:1001B0000D024000D1014000D9014000E1014000A2
:1001C000E9014000F1014000F90140000302400054
:1001D0000020104B984719E001200E4B984715E07E
:1001E00000200D4B984711E010200B4B98470DE075
:1001F0002020094B984709E000203E21074B9847F3
:1002000004E001203E21054B984700BF0837BD465A
:1002100080BD00BF790D4000E50D4000550E400047
:1002200080B582B000AF78607B68072B26D801A22A
:1002300052F823F055024000590240005902400094
:100240006B0240006B0240006B0240006B024000FA
:100250006B024000012312E00B4B98470346002B32
:1002600014BF01230023DBB209E0084B9847034683
:10027000002B14BF01230023DBB200E0002318464B
:100280000837BD4680BD00BFB10D4000CD0E400017
:1002900080B483B000AF78607B68072B25D801A2BB
:1002A00052F823F0C5024000CB024000D1024000CA
:1002B000D7024000DB024000DF024000E3024000C2
:1002C000E70240004FF4FA4310E04FF400430DE022
:1002D0004FF400430AE0084B08E0084B06E0084BE7
:1002E00004E0084B02E0064B00E0002318460C3700
:1002F000BD465DF8047B704700093D0000127A009E
:10030000001BB7000024F40080B582B000AF0346A4
:10031000FB7100BFFB791846054B9847034683F0F5
:100320000103DBB2002BF5D10837BD4680BD00BF0D
:100330002102400080B586B000AFF8607A603B6073
:100340000B46FB727B68002B07D13B68002B04D166
:10035000FB684FF470021A6019E0FB7A18460D4BE7
:10036000984702467B68B2FBF3F37B617B693A688E
:1003700002FB03F37B613B68013B1A04064B13400D
:100380007A68D2B2134343F47C52FB681A60183780
:10039000BD4680BD910240000000FF0780B582B0DD
:1003A00000AF786039603B68002B08D1084B984754
:1003B000084A7B681B6843F00053936205E0054AD6
:1003C0007B681B6843F48033D3610837BD4680BD2A
:1003D000E90E400000060E4080B582B000AF7860A4
:1003E0007B68002B03D1054B9847034602E0044B82
:1003F0009847034618460837BD4680BD010F4000A8
:100400001D0F400080B582B000AF0346FB71FB7941
:10041000033B042B08D8FB791846054B9847FB791A
:100420001846044B984700E000BF0837BD4680BD22
:100430009D0140000903400080B582B000AF7860A4
:1004400000BF7868044B98470346002BF9D000237F
:1004500018460837BD4680BDD903400080B500AFBF
:100460000620054B9847024613469B0013449A000A
:1004700013449B08184680BD9102400080B500AF30
:10048000024B98470346184680BD00BF5D044000FC
:1004900090B583B000AF1348134B98470620134B19
:1004A00098473B1D1846062104221923104CA047EB
:1004B0003B1D184600210F4B984700200E4B9847D4
:1004C00001200E4B984700200D4B98470D4B984745
:1004D0000D4B984703461846034B98470C37BD46CB
:1004E00090BD00BF00A3E111D518400005044000F5
:1004F000350340009D034000390440007D0C40005E
:10050000F50C40006D1740007D04400080B586B0BA
:1005100000AFF860B9607A6000237B61FB68002B54
:1005200002D04FF0FF3314E00FE00C4B1B680C4A75
:1005300012681046B9689847BB680133BB607B6995
:1005400001337B617B68013B7B607B68002BECDCCB
:100550007B6918461837BD4680BD00BF9009402012
:100560009809402080B586B000AFF860B9607A6025
:1005700000237B61FB68012B08D0FB68022B05D0B0
:10058000FB68032B02D04FF0FF331AE015E00F4B4E
:100590001A680F4B1868BB68591CB9601B7819465C
:1005A00090470346002B02DA4FF0FF3309E07B69E6
:1005B00001337B617B68013B7B607B68002BE6D16C
:1005C0007B6918461837BD4680BD00BF940940209E
:1005D0009809402080B582B000AF78607868024BFF
:1005E00098470837BD4680BD390F400080B500AF41
:1005F0000A20074B98470B20054B98470C20044BCB
:1006000098471020024B98471120014B984780BD16
:10061000D505400080B489B000AF78607B68FB618D
:10062000FB69BB61BB695A09FB697B617B6903F0AC
:100630001F03012101FA03F33A61FB603B69BB60D0
:10064000BA68054B13445B021A46FB6853602437B3
:10065000BD465DF8047B70470707200080B487B073
:1006600000AF786039607B687B613B683B617B6988
:10067000FB60FA68054B13445B021A463B69536002
:100680001C37BD465DF8047B704700BF070720009C
:1006900080B48BB000AFF860B9607A60FB687B62B1
:1006A000BB683B627B68FB617B6ABB61BA69374BA5
:1006B00013445B027B61FB6903F00803002B03D04A
:1006C0007B693A6A5A6602E07B693A6A1A66FB6994
:1006D00003F01003002B04D07B693A6AC3F894201E
:1006E00003E07B693A6AC3F89020FB6903F02003BA
:1006F000002B03D07B693A6A1A6502E07B693A6A8B
:100700005A65FB6903F0C003002B03D07B693A6A8A
:100710001A6202E07B693A6A5A62FB6903F080035D
:10072000002B04D07B693A6AC3F8842003E07B691C
:100730003A6AC3F88020FB6903F00103002B06D05E
:100740007B691A6F3B6A1A437B691A6706E07B690B
:100750001A6F3B6ADB431A407B691A67FB6903F037
:100760000203002B06D07B695A6F3B6A1A437B69F0
:100770005A6706E07B695A6F3B6ADB431A407B6924
:100780005A672C37BD465DF8047B70470707200089
:1007900080B48DB000AF786039607B68FB623B68E5
:1007A000BB62FB6A7B627B6A5A09FB6A3B623B6AFB
:1007B00003F01F03012101FA03F3FA61BB61BB6A75
:1007C0007B61FB693B613A69374B13445B02FB6019
:1007D0007B6903F00803002B03D0FB68BA695A66F3
:1007E00002E0FB68BA691A667B6903F01003002B0C
:1007F00004D0FB68BA69C3F8942003E0FB68BA69C7
:10080000C3F890207B6903F02003002B03D0FB6822
:10081000BA691A6502E0FB68BA695A657B6903F038
:10082000C003002B03D0FB68BA691A6202E0FB68C0
:10083000BA695A627B6903F08003002B04D0FB681D
:10084000BA69C3F8842003E0FB68BA69C3F8802062
:100850007B6903F00103002B06D0FB681A6FBB69AC
:100860001A43FB681A6706E0FB681A6FBB69DB4333
:100870001A40FB681A677B6903F00203002B06D05D
:10088000FB685A6FBB691A43FB685A6706E0FB684E
:100890005A6FBB69DB431A40FB685A673437BD4661
:1008A0005DF8047B704700BF0707200080B48DB05F
:1008B00000AF78600B46FB707B68FB62FB7887F8C3
:1008C0002B30FB6A7B627B6A3B623B6A5B09FB61A4
:1008D000FA69174B13445B02BB6197F82B30012B6D
:1008E00009D1FB6A7B617B6903F01F0301229A40F7
:1008F000BB691A610CE097F82B30002B08D1FB6A1A
:100900003B613B6903F01F0301229A40BB695A61B6
:10091000FB6AFB60FB6803F01F0301229A40BB697E
:10092000C3F8A0203437BD465DF8047B704700BF94
:100930000707200080B48BB000AF78600B46FB70D7
:100940007B687B62FB7887F823307B6AFB61FB69FD
:10095000BB61BB695B097B617A69104B13445B0225
:100960003B6197F82330002B09D07B6AFB60FB6862
:1009700003F01F0301229A403B691A6308E07B6A77
:10098000BB60BB6803F01F0301229A403B695A63B6
:100990002C37BD465DF8047B704700BF0707200079
:1009A00080B48DB000AF78600B46FB707B68FB6253
:1009B000FB7887F82B30FB6A7B627B6A5A09FB6AFB
:1009C0003B623B6A03F01F03012101FA03F3FA6162
:1009D000BB6197F82B30FB75FB693B613A69224B91
:1009E00013445B02FB60FB7D013B032B2ED801A26D
:1009F00052F823F0290A40003B0A4000050A400053
:100A0000170A4000FB68BA69C3F8C420FB68BA69DA
:100A1000C3F8D0201FE0FB68BA69C3F8C420FB68A4
:100A2000BA69C3F8D42016E0FB68BA69C3F8C020DD
:100A3000FB68BA69C3F8D0200DE0FB68BA69C3F857
:100A4000C020FB68BA69C3F8D42004E0FB68BA6927
:100A5000C3F8B42003E0FB68BA69C3F8B0203437A8
:100A6000BD465DF8047B70470707200080B500AFE6
:100A7000244B4FF400425A60234B984750200121E9
:100A8000224B984750200121214B98470B200021F1
:100A90001E4B98470B2088211E4B98470B200221A4
:100AA0001D4B984700204FF4C06100221B4B984714
:100AB00000204FF4C0611A4B984703200021154BCA
:100AC00098470320174B984704200021114B984763
:100AD0000420144B9847202002210E4B98472020D9
:100AE000104B9847212002210A4B984721200D4B9B
:100AF000984723200221074B98472320094B98470A
:100B000080BD00BF50180E40ED054000AD0840000C
:100B10003509400091074000A109400091064000BE
:100B20005D0640001506400080B483B000AF7860D9
:100B30007B68DB6C18460C37BD465DF8047B70475C
:100B400080B483B000AF78607B689B6C18460C372C
:100B5000BD465DF8047B704780B584B000AF786017
:100B600039607868244B9847F8607868234B984739
:100B70000246FB681340FB60FB68002B38D0002363
:100B8000BB6032E01E4ABB681B0113441A683B6815
:100B90009A4223D11A4ABB681B0113445A68FB6866
:100BA0001340002B1AD0164ABB681B0113440833AC
:100BB0005B681349BA6812010A4410681049BA68A0
:100BC00012010A445268114698470D4ABB681B013E
:100BD00013445B68DB43FA681340FB60BB68013376
:100BE000BB60BB68062B00D902E0FB68002BC9D1B3
:100BF0001037BD4680BD00BF290B4000410B4000AF
:100C0000D808402080B500AF02480A21024B98471F
:100C100080BD00BF000E0E40590B400080B500AFF4
:100C200002480B21024B984780BD00BF00100E40C8
:100C3000590B400080B500AF02480C21024B984789
:100C400080BD00BF00120E40590B400080B500AFC0
:100C500002481021024B984780BD00BF00140E408F
:100C6000590B400080B500AF02481121024B984754
:100C700080BD00BF00160E40590B400080B483B009
:100C800000AF78607B68013B032B1AD801A252F8B1
:100C900023F000BFA50C4000AB0C4000B30C40009B
:100CA000BB0C400000237B600EE04FF480737B6040
:100CB0000AE04FF440737B6006E04FF400737B6002
:100CC00002E000237B6000BF0949094B1B6B23F442
:100CD00040727B6813430B6300BF054B9B6E03F0B0
:100CE0000803002BF9D00C37BD465DF8047B704734
:100CF00000060E4080B485B000AF78601D491D4BE2
:100D00001B6B23F070027B6813430B634FF480531B
:100D1000FB6007E0FB68002B01D1012323E0FB68A7
:100D2000013BFB60134B9B6E03F00803002BF1D0DB
:100D3000104A104B1B6B23F0030343F002031363B1
:100D40004FF48053FB6007E0FB68002B01D10123C7
:100D500009E0FB68013BFB60064B9B6E03F0080358
:100D6000002BF1D0002318461437BD465DF8047BF4
:100D7000704700BF00060E4080B483B000AF7860BB
:100D80007B68012B05D10749064B9A68064B134334
:100D90008B60044B054A1A600C37BD465DF8047B36
:100DA000704700BF10180E40000010A5080000A5F5
:100DB00080B400AF094B5B6903F08003002B07D0C0
:100DC000074B9B6E03F08003002B01D0012300E052
:100DD00000231846BD465DF8047B704710180E408E
:100DE00000060E4080B483B000AF78601549154B03
:100DF0001A6A154B13430B6200BF124B9B6E03F430
:100E00000033002BF9D00F490E4B1A6A0F4B1340D9
:100E10007A68134343F45C130B6200BF094B9B6E6B
:100E200003F40033002BF9D00649064B1A6A084B2D
:100E3000134043F45C130B620C37BD465DF8047B32
:100E4000704700BF00060E40080037008FFFC8FF44
:100E5000FFFFC8FE80B483B000AF786039607B6864
:100E6000002B08D01349134B1B6A134A1A40134B2B
:100E700013430B6218E00F490E4B1A6A104B1340D4
:100E80003A68120292B21A430E4B13430B6200BF30
:100E9000084B9B6E03F00103002BF9D00549054B6D
:100EA0001A6A094B13430B620C37BD465DF8047B8D
:100EB000704700BF00060E40FCFFC8FE020037016D
:100EC000FCFFC8FF010037000000370180B400AF0D
:100ED000044B9B6E03F480331846BD465DF8047BDB
:100EE000704700BF00060E4080B400AF034B4FF0C8
:100EF00000529A62BD465DF8047B704700060E40C2
:100F000080B400AF044B9B6E03F002031846BD464D
:100F10005DF8047B704700BF00060E4080B400AF50
:100F2000044B9B6E03F040031846BD465DF8047BFE
:100F3000704700BF00060E4080B483B000AF7860F9
:100F40007B683F2B01D901232FE07B681F2B13D82F
:100F5000194B9A697B68012101FA03F31A407B68F7
:100F6000012101FA03F39A421ED0134A7B68012142
:100F700001FA03F3136117E07B68203B7B600E4BA3
:100F8000D3F808217B68012101FA03F31A407B683A
:100F9000012101FA03F39A4206D0074A7B68012136
:100FA00001FA03F3C2F80031002318460C37BD469E
:100FB0005DF8047B704700BF00060E4080B483B02C
:100FC00000AF78607B6808221A607B6820221A6074
:100FD0007B6804221A600C37BD465DF8047B7047BD
:100FE00080B584B000AF786039600023FB607B6817
:100FF0004FF0FF329A627B681B6A78680B4B984708
:1010000078680B4B98473B685A683B681B68786860
:1010100011461A46074B98470346012B01D101237D
:10102000FB60FB6818461037BD4680BDC912400002
:10103000BD0F40003910400080B487B000AFF860A9
:10104000B9607A6000237B61BB68164A934201D97C
:10105000012321E0BB685B007A68B2FBF3F3043B39
:101060003B6105E07B6901337B613B695B083B6168
:101070003B69FF2B02D97B69062BF3D93B69DAB2B6
:101080003B691B029BB21A437B691B0403F4E023F8
:101090001A43FB681A61002318461C37BD465DF8E9
:1010A000047B7047801A060080B485B000AF78607A
:1010B00039603B68002B01D100231DE07B681B7861
:1010C000FB603B68012B09DDFB681B02FB607B6852
:1010D00001331B781A46FB681343FB603B68022B05
:1010E00009DDFB681B02FB607B6802331B781A4634
:1010F000FB681343FB60FB6818461437BD465DF878
:10110000047B704780B586B000AF786039603B687B
:10111000DB687B613B689B683B6143F69823FB601F
:101120007B69002B01D1012359E07B6800225A60C2
:101130003B681B7C1B0403F4FE023B685B681B02DC
:1011400003F44073134343F480527B685A607B6816
:101150000022DA603A683B685B6810461946224B09
:10116000984702467B68DA607B6801221A6029E0B2
:101170007B681B6ABB60BB6803F48073002B01D0E3
:1011800005232CE0FB685A1EFA60002B01D10923CD
:1011900025E07B69012B02D17B6802221A60BB68C3
:1011A00003F00203002B00D10CE03B695A1C3A61AA
:1011B0007A68126BD2B21A707B69013B7B6143F68D
:1011C0009823FB607B69002BD2D100BF7B681B6A30
:1011D00003F00103002BF9D07B681B6A002318463B
:1011E0001837BD4680BD00BFA910400080B586B04D
:1011F00000AF786039603B68DB687B613B689B6867
:101200003B617B69002B01D1012356E07B68002202
:101210005A603B681B7C1B0403F4FE023B685B685E
:101220001B0203F440731A437B685A607B680022F8
:10123000DA603A683B685B6810461946214B98476C
:1012400002467B68DA6019E07B681B6AFB60FB681A
:1012500003F48073002B01D005232EE0FB6803F01C
:101260000403002B00D109E03B695A1C3A611B784A
:101270001A467B685A637B69013B7B617B69002B63
:10128000E2D17B681B6AFB60FB6803F48073002B70
:1012900001D0052311E0FB6803F00403002B04D008
:1012A00000BF7B6802221A6000E0EAE77B681B6AE5
:1012B00003F00103002BF9D0002318461837BD4670
:1012C00080BD00BFA910400080B483B000AF78603B
:1012D0007B6880221A607B681B6B0C37BD465DF80B
:1012E000047B704780B485B000AF7860396000231C
:1012F000FB607B68AC221A603B681A683B685B68DD
:10130000B2FBF3F31B09FB60FB68002B03D0FB6807
:10131000B3F5803F01D301230AE07B68FA681A62C3
:101320003B689A687B685A607B6850221A60002389
:1013300018461437BD465DF8047B704780B483B00F
:1013400000AF78600B46FB707B685B6903F00203BB
:10135000002B01D1012303E0FA787B68DA610023D6
:1013600018460C37BD465DF8047B704780B483B0E7
:1013700000AF786039607B685B6903F00103002B84
:1013800001D1012305E07B689B69DAB23B681A70E2
:10139000002318460C37BD465DF8047B704700BF3C
:1013A00080B489B000AFF860B9607A60BB681A0198
:1013B0007B689A4202D81023FB6101E00823FB619D
:1013C0007B68DA00FB69B96801FB03F35B081A4428
:1013D000FB69B96801FB03F3B2FBF3F3BB61BB69C3
:1013E000DB087B61BB6903F007033B617B69002B72
:1013F00003D07B69B3F5803F01D301230FE0FB6984
:10140000082B05D1FB685B6843F40022FB685A6037
:101410003B691A047B691A43FB681A620023184669
:101420002437BD465DF8047B704700BF80B582B0AD
:1014300000AF786078680D4B98477B6800225A604F
:101440007B6800225A627B6800229A627868084BA7
:1014500098477868074B98477868074B98477868AB
:10146000064B98470837BD4680BD00BFC1164000F7
:101470001D15400069154000D1154000ED154000D4
:1014800080B584B000AFF860B9607A60F8681A4B34
:1014900098471A4B00221A60BB68002B09D0BB6822
:1014A0001B68F86819467A68154B98470346002B65
:1014B00001D001231BE0BB685A68BB689B681A43D4
:1014C000BB681B691A43BB68DB681A430B4B1B687C
:1014D00013430A4A1360094B1B68084A1360FB68F0
:1014E0005A68064B1B681A43FB685A60002318466B
:1014F0001037BD4680BD00BF2D1440004809402074
:10150000A113400080B483B000AF78607B684022B4
:101510001A600C37BD465DF8047B704780B483B019
:1015200000AF78607B6888221A600C37BD465DF892
:10153000047B704780B483B000AF786039607B680B
:101540003A689A620C37BD465DF8047B704700BF6D
:1015500080B483B000AF78607B6810221A600C37CB
:10156000BD465DF8047B704780B483B000AF7860FF
:101570007B6824221A600C37BD465DF8047B7047F7
:1015800080B483B000AF786039607B683A689A6055
:101590000C37BD465DF8047B704700BF80B483B054
:1015A00000AF786039607B683A68DA600C37BD4616
:1015B0005DF8047B704700BF80B483B000AF7860F3
:1015C0007B685B6918460C37BD465DF8047B704745
:1015D00080B483B000AF78607B684FF480721A608B
:1015E0000C37BD465DF8047B704700BF80B483B004
:1015F00000AF78607B684FF400221A600C37BD465C
:101600005DF8047B704700BF80B483B000AF7860A2
:101610007B685B6903F40073002B14BF0123002374
:10162000DBB218460C37BD465DF8047B704700BF3F
:1016300080B483B000AF78607B685B6903F001031E
:10164000002B14BF01230023DBB218460C37BD4624
:101650005DF8047B704700BF80B483B000AF786052
:1016600039607B685B6903F00203002B01D1012321
:1016700005E03B68C3F308027B68DA610023184683
:101680000C37BD465DF8047B704700BF80B483B063
:1016900000AF786039607B685B6903F00103002B61
:1016A00001D1012306E07B689B69C3F308023B6814
:1016B0001A60002318460C37BD465DF8047B70475E
:1016C00080B483B000AF78607B68044AC3F8E4203C
:1016D0000C37BD465DF8047B704700BF0041535591
:1016E00080B582B000AF164B7B60164B3B607A68CA
:1016F0003B689A420CD007E03B681A1D3A607A6852
:10170000111D796012681A603B680F4A9342F3D347
:101710000E4B3B6004E03B681A1D3A6000221A60E1
:101720003B680B4A9342F6D30A4B7B600A4A7B68BC
:1017300023F07F039360094B9847094B9847FEE7D6
:101740004845400000004020BC084020BC08402024
:10175000781140200000400000ED00E02527400007
:101760007124400080B400AFFEE700BF80B400AF3A
:10177000514B1B6B03F00303012B14D0012B02D33D
:10178000022B38D07BE04D4B5B6903F08003002BCC
:1017900004D04B4B4FF400421A6070E0484B4FF4BA
:1017A000FA421A606BE0444B1B6A03F08073002B13
:1017B00003D0434B434A1A601CE0414B424A1A6033
:1017C0003D4B1B6A03F07003102B04D0202B08D074
:1017D000002B0ED00EE03A4B1B685B00384A1360BA
:1017E00008E0374B1A6813465B001344344A136011
:1017F00000E000BF43E0304B1B6A03F08073002B16
:1018000003D02F4B2F4A1A601CE02D4B2E4A1A6032
:10181000294B1B6A03F07003102B04D0202B08D037
:10182000002B0ED00EE0264B1B685B00244A136091
:1018300008E0234B1A6813465B001344204A1360E8
:1018400000E000BF1C4B1B6B03F00303022B15D100
:10185000194B9A6A1D4B13401B0C0133184A12682E
:1018600002FB03F3164A1360134B9B6ADBB2144A64
:101870001268B2FBF3F3124A1360FFE700BF0E4B8E
:101880001B6B03F07003702B08D10D4B1B68104AC3
:10189000A2FB03235B080A4A136009E0064B1B6B9B
:1018A00003F070031A09064B1B68D340044A136007
:1018B000BD465DF8047B704700060E4010180E40D0
:1018C00000004020001BB70000093D000000FF079A
:1018D000ABAAAAAA80B483B000AF78607B68184A2C
:1018E000934204D8174B4FF080621A6023E07B6864
:1018F000154A934203D8134B144A1A601BE07B68C5
:10190000134A934203D80F4B124A1A6013E07B68C4
:10191000114A934203D80B4B104A1A600BE07B68C4
:101920000F4A934204D8074B4FF004221A6002E09A
:10193000044B0C4A1A600C37BD465DF8047B7047B7
:10194000FF2C3101000C0E40FF596202000100041F
:10195000FF86930300020004FFB3C40400030004E5
:10196000FFE0F5050005000480B485B000AF7860A5
:10197000104BFB60104B1B68002B02D10E4B0F4A23
:101980001A600D4B1B68BB60BA687B681A44FB6821
:101990009A4202DD4FF0FF3306E0074B1A687B687E
:1019A0001344054A1360BB6818461437BD465DF8FA
:1019B000047B7047FCFF45204C09402078334020D1
:1019C00080B483B000AF78604FF0FF3318460C3717
:1019D000BD465DF8047B704780B483B000AF78608B
:1019E00039603B684FF400525A60002318460C37A8
:1019F000BD465DF8047B704780B483B000AF78606B
:101A0000012318460C37BD465DF8047B704700BFC4
:101A100080B485B000AFF860B9607A6000231846E2
:101A20001437BD465DF8047B704700BF80B588B0B1
:101A300000AF0346FB710B46BB7113467B71BB794C
:101A40003B777B797B77FB79002B02D160233B7658
:101A500004E0FB79012B01D161233B7600233B722B
:101A600000237B720023BB720023FB6007F11C0381
:101A70003B6102237B6100BF07F10803054819465B
:101A8000054B98470346002BF6D100BF2037BD46D3
:101A900080BD00BF00800140ED11400080B588B0DE
:101AA00000AF03460A46FB711346BB71FB79002B5E
:101AB00002D160233B7604E0FB79012B01D1612345
:101AC0003B7600233B7200237B720023BB72002312
:101AD000FB60BB1D3B6101237B6100BF07F1080375
:101AE0000F4819460F4B98470346002BF6D1142098
:101AF0000D4B98470023FB6007F11F033B61012357
:101B00007B6100BF07F1080305481946074B98475A
:101B10000346002BF6D1FB7F18462037BD4680BD1B
:101B200000800140ED114000E92140000511400016
:101B300080B582B000AF0020002100222E4B9847D4
:101B40000020012100222C4B984700204321C8226D
:101B5000294B9847002002210022274B984700205C
:101B600003210022244B9847002004210022224B0D
:101B700098470020052100221F4B98470020442150
:101B80001E4B98470346FB71002045211B4B98478D
:101B90000346BB71012000210022174B984701200A
:101BA00001210022144B984701204321C822124BE7
:101BB00098470120022100220F4B98470120032162
:101BC00000220D4B98470120042100220A4B984720
:101BD000012005210022084B984701204421074B92
:101BE000984703467B7101204521044B98470346E3
:101BF0003B710837BD4680BD2D1A40009D1A40003C
:101C000080B483B000AF0346FB71084997F90730F1
:101C10005B09FA7902F01F02012000FA02F241F892
:101C200023200C37BD465DF8047B704700E100E0DF
:101C300080B483B000AF03463960FB7197F9073079
:101C4000002B0BDA0D49FB7903F00F03043B3A68D4
:101C5000D2B25201D2B20B441A7609E0084997F980
:101C600007303A68D2B25201D2B20B4483F8002353
:101C70000C37BD465DF8047B704700BF00ED00E007
:101C800000E100E080B582B000AF78607B68013B86
:101C9000B3F1807F01D301230FE00A4A7B68013B47
:101CA00053604FF0FF300721074B9847054B002248
:101CB0009A60044B07221A60002318460837BD4675
:101CC00080BD00BF10E000E0311C400080B483B054
:101CD00000AF78607B68072B25D801A252F823F06B
:101CE000011D4000071D40000D1D4000131D400058
:101CF000171D40001B1D40001F1D4000231D4000FC
:101D00004FF4FA4310E04FF400430DE04FF400436A
:101D10000AE0084B08E0084B06E0084B04E0084BDB
:101D200002E0064B00E0002318460C37BD465DF884
:101D3000047B704700093D0000127A00001BB700C9
:101D40000024F40080B500AF0620054B98470246FA
:101D500013469B0013449A0013449B08184680BD09
:101D6000CD1C400080B500AF024B98470346184693
:101D700080BD00BF451D400080B500AF024B9847B5
:101D80000346184680BD00BF451D400080B582B0A7
:101D900000AF78607868024B98470837BD4680BD31
:101DA000390F400080B48BB000AF78607B687B62F5
:101DB0007B6A3B623B6AFB61FB695B09BB61BA6999
:101DC000124B13445B027B617B6A3B613B6903F00E
:101DD0001F03012202FA03F3FB607B69DA6B7B6A63
:101DE000BB60BB6803F01F03012101FA03F313403A
:101DF000002B03D07B69FA685A6302E07B69FA68BA
:101E00001A632C37BD465DF8047B70470707200036
:101E100080B58CB000AF78603960484B9847034676
:101E20007B623B681B68BB623B689B68FB623B68EC
:101E30001B68FB603B685B683B613B689B687B6140
:101E40003B68DB68BB610023FB617B683C4A9342D3
:101E500008D107203B4B984707F1240378681946BF
:101E6000394B98477B68394A934208D10820354B53
:101E7000984707F1240378681946334B98477B68E5
:101E8000334A934208D12C202E4B984707F1240364
:101E9000786819462C4B98477B682E4A934208D1A4
:101EA0002D20284B984707F1240378681946264BC4
:101EB00098477B68284A934211D10D20214B9847BF
:101EC0001E4B9847024607F10C0378681946234BCE
:101ED00098477868224B98477868224B98477B68E8
:101EE000214A934211D10E20164B9847134B984725
:101EF000024607F10C0378681946184B9847786832
:101F0000174B98477868174B98477B68174A934256
:101F100011D10F200B4B9847084B9847024607F109
:101F20000C03786819460D4B984778680C4B984716
:101F300078680C4B98473037BD4680BD791D40000E
:101F400000080E408D1D4000E5124000000A0E40C2
:101F5000001A0E40001C0E40004002408114400058
:101F600005154000511540000080024000C00240AD
:101F700080B582B000AF78600B46FB707B68364A54
:101F800093420AD100BFFB7878681946334B9847D3
:101F90000346002BF7D101235AE07B68304A934275
:101FA0000AD100BFFB78786819462C4B9847034646
:101FB000002BF7D101234BE07B682A4A93420AD1D8
:101FC00000BFFB7878681946244B98470346002BDE
:101FD000F7D101233CE07B68234A93420AD100BF3A
:101FE000FB78786819461D4B98470346002BF7D1BC
:101FF00001232DE07B681D4A93420AD100BFFB7884
:10200000786819461A4B98470346002BF7D10123ED
:102010001EE07B68174A93420AD100BFFB787868BC
:102020001946134B98470346002BF7D101230FE0C5
:102030007B68114A93420AD100BFFB787868194641
:102040000B4B98470346002BF7D1012300E00023F8
:1020500018460837BD4680BD00080E403D134000BD
:10206000000A0E40001A0E40001C0E4000400240C4
:10207000591640000080024000C0024080B584B084
:1020800000AF786039600023FB607B68334A93427D
:1020900007D100BF78683968314B98470346002B59
:1020A000F8D17B682F4A934207D100BF786839681E
:1020B0002B4B98470346002BF8D17B682A4A934262
:1020C00007D100BF78683968254B98470346002B35
:1020D000F8D17B68254A934207D100BF78683968F8
:1020E0001F4B98470346002BF8D17B68204A934248
:1020F0000DD100BF07F10C03786819461D4B9847B6
:102100000346002BF6D1FB68DAB23B681A707B6895
:10211000194A93420DD100BF07F10C0378681946A4
:10212000144B98470346002BF6D1FB68DAB23B68A4
:102130001A707B68114A93420DD100BF07F10C035E
:10214000786819460B4B98470346002BF6D1FB687D
:10215000DAB23B681A701037BD4680BD00080E40E9
:102160006D134000000A0E40001A0E40001C0E4085
:10217000004002408D1640000080024000C0024036
:1021800080B582B000AF786039600F4A7B68136019
:102190000E4B0F4A1A600F4B0F4A1A607868396865
:1021A0000E4B98470E4B1B689B68184600210D4B41
:1021B00098470B4B1B685B6818460021094B9847F2
:1021C0000837BD4680BD00BF9809402094094020D3
:1021D000711F4000900940207D204000111E4000EA
:1021E000A80440208528400080B485B000AF786006
:1021F000074B1B68FB6000BF054B1A68FB68D21ACF
:102200007B689A42F8D31437BD465DF8047B70476B
:102210005809402080B400AF064B1B680133054AC3
:102220001360054B1B680133034A1360BD465DF81C
:10223000047B70479C0940205809402080B582B03B
:1022400000AF1B481B4B984778607A6840F2022326
:102250001340002B04D0164840F20221164B984739
:10226000164B1B78DBB2022B1FD1FB1C1048194602
:10227000134B98470346002B17D1124B1B685A1C6F
:1022800010490A60FA781A700F4B1B6801330E4A26
:1022900013600D4B1B68B3F5FA6F06D3074B03228F
:1022A0001A7003480121044B98470837BD4680BD8A
:1022B00000400240B91540009D15400050094020E3
:1022C0008D1640000400402054094020B0B586B06F
:1022D00000AF144B3C461D460FCD0FC495E80300DC
:1022E00084E803000D20104B9847104B9847024696
:1022F0003B460F4819460F4B98470D4804210E4B9B
:1023000098470B484FF0FF310C4B984708480C4B4F
:10231000984707480B4B98470D200B4B98471837A9
:10232000BD46B0BD804340008D1D4000651D40008E
:102330000040024081144000351540009D154000CA
:102340000515400051154000011C400080B582B0C9
:1023500000AF0A4B98470246094BA3FB02239B0997
:102360001846084B984778607B68002B03D00648D6
:10237000064B9847FEE70837BD4680BD651D400007
:10238000D34D6210851C40009843400075284000E2
:1023900090B585B000AF084B3C460FCB84E80F00EA
:1023A0000720064B98473B4605481946054B98477A
:1023B0001437BD4690BD00BFBC4340008D1D40009A
:1023C00000080E408121400080B582B000AF7860E7
:1023D000396013E07B681B7810481946104B98470A
:1023E0000346002B0AD10D4840F202210D4B9847BD
:1023F0003B68013B3B607B6801337B603B68002BA3
:10240000E8D100BF0548084B98470346002BF9D098
:10241000002318460837BD4680BD00BF004002407B
:1024200059164000811540000916400080B584B05F
:1024300000AF1320094B9847094B984703467B6030
:10244000084BBB603B1D08481946084B984703469C
:10245000002B00D0FEE71037BD4680BD390F40008D
:10246000651D4000801A060000800140E10F400019
:1024700080B588B000AF00233B7200237B7200233D
:10248000BB720023FB7200233B7300237B7300238A
:10249000BB730023FB7300233B7400237B74002376
:1024A000BB7400237B610023FB760023BB76814B4A
:1024B0009847814B9847814B9847814B9847814B70
:1024C0009847814B9847814B98478148814B984763
:1024D0007F48814B98475020804B98470023FB61F1
:1024E00015E064207E4B984779487E4B9847034619
:1024F000002B09D0FB1D764819467B4B9847FB1DE6
:1025000018460121794B9847FB690133FB61FB6950
:10251000452BE6D90023BB7654E0FB7E744A52F883
:102520002320BB7E13441B78FB74724B1B689B6893
:102530009A68013A9A609B68002B34DA6D4B1B68ED
:102540009B689A686B4B1B689B689B699A421EDB71
:10255000684B1B689B681B68FA7C1A70654B1B688C
:102560009B681B681B780A2B06D0624B1B689B6814
:102570001A6801321A6022E05E4B1A685D4B1B68D4
:102580009B6810460A211A465B4B984717E0594B47
:102590001968FA7C574B1B689B68084611461A4617
:1025A000554B98470BE0534B1B689B681B68FA7CA4
:1025B0001A70504B1B689B681A6801321A60BB7E08
:1025C0000133BB76BB7E062BA7D9FB7E082B5BD8DD
:1025D00001A252F823F000BFFD2540000D26400067
:1025E0001D26400031264000412640005126400073
:1025F0005F2640006D2640007B26400007F108035F
:102600003E4A92E8030083E803003DE007F1080337
:102610003B4A92E8030083E8030035E0394A07F1BA
:10262000080307CA03C31A800233120C1A702BE086
:1026300007F10803344A92E8030083E8030023E02B
:1026400007F10803314A92E8030083E803001BE026
:1026500007F108032E4A07CA03C31A7014E007F1F2
:1026600008032C4A07CA03C31A700DE007F10803D8
:10267000294A07CA03C31A7006E007F10803274A6C
:1026800007CA03C31A7000BF07F108031846244B9A
:102690009847024607F1080318461146134B98471E
:1026A000FB7E0133FB76FB7E082B01D90023FB76F2
:1026B00011E700BF910440006D0A400091234000E3
:1026C000CD2240004D2340002D244000311B40000E
:1026D000004002400515400051154000A51D400076
:1026E000E9214000311640008D164000C92340000A
:1026F00058004020A8044020ED294000D04340006D
:10270000D843400020444000E0434000E8434000FC
:10271000F0434000FC4340000844400014444000A3
:102720009129400070B50F4E0F4D761BB61018BFA3
:10273000002405D0013455F8043B9847A642F9D14E
:102740000A4E01F0EFFE0A4D761BB61018BF0024AA
:1027500006D0013455F8043B9847A642F9D170BD24
:1027600070BD00BF30454000304540003845400056
:1027700030454000830770B449D0541E002A44D02D
:10278000CDB2034602E0002C3FD0144603F8015BB3
:1027900013F0030F04F1FF32F5D1032C2ED9CDB283
:1027A0000F2C45EA052545EA054519D903F1100224
:1027B0002646103E42F8105C42F80C5C10320F2E98
:1027C00042F8185C42F8145CF3D8A4F1100204F04B
:1027D0000F0422F00F02032C02F1100213440DD952
:1027E0001E462246043A46F8045B032AFAD8221F02
:1027F00004F0030422F00302043213442CB1C9B2E2
:102800001C4403F8011BA342FBD170BC7047144663
:102810000346C2E7F0B5044689B008460D4600F00D
:10282000B7F8A368012702219A8904AE00EB070CD0
:10283000DFF83CE00291910404950590CDF80CC0BE
:10284000CDF818E00797019606D4596E42F400526D
:1028500021F400519A8159662046194601AA00F0D8
:102860000FFC002814BF4FF0FF300A2009B0F0BD64
:1028700020454000024B01461868FFF7CBBF00BF60
:10288000A804402000294FF480630CBF02220022DC
:1028900000F000B82DE9F8433B4E04460D46904643
:1028A00037681E4617B1BB6B002B3FD0B8F1020F43
:1028B00032D85FEAD6792FD12146384600F000FAA7
:1028C000A189C4F804900B06C4F8189028D421F00C
:1028D0008301B8F1020F89B2A1812BD0002D37D02E
:1028E000B8F1010F12D089B2284B01F00800FB6348
:1028F000256080B22561666180B111F0030F4FF051
:10290000000018BF0646A660BDE8F88341F001014B
:102910007342A181A361E6E74FF0FF30BDE8F88381
:102920002169384600F0D4FAA189D0E7384600F092
:1029300061FABBE7002004F1430341F002010025E6
:102940000122A181A560236023616261BDE8F88353
:10295000002E08BF4FF48066304600F0BDFD0546EE
:1029600028B1A18941F0800189B2A181B8E74FF473
:10297000806000F0B1FD054618B9A1894FF0FF3025
:10298000D9E74FF48066ECE7A8044020ED2C400026
:1029900020F0030110F00300C0F1000051F8043BE7
:1029A00000F1040C4FEACC0C6FF000021CBF22FABD
:1029B0000CF213434FF0010C4CEA0C2C4CEA0C4C7B
:1029C000A3EB0C0222EA030212EACC1204BF51F874
:1029D000043B0430F4D0C2F1000102EA0102B2FA71
:1029E00082F2C2F11F0200EBD200704770B50D46B3
:1029F0001446064610B1836B002B48D0A289A36908
:102A000091B2A360080738D52369002B35D089041B
:102A1000EDB215D522686169D31A8B421CDA0133F5
:102A2000A168501C01392060A160157062699A424A
:102A30001AD00A2D02D1237BDB0715D4284670BD9E
:102A4000616E42F4005221F40051A2812268616655
:102A5000D31A61698B42E2DB3046214600F030F93F
:102A600040B922680123DBE73046214600F028F90F
:102A70000028E3D04FF0FF3070BD3046214600F013
:102A800009F80028F6D1A289236991B2BFE700F0C6
:102A9000B1F9B3E738B52F4B05460C46186810B1AD
:102AA000836B002B36D0A28993B218070BD520690F
:102AB000A0B113F001021DD1990700D46269A26090
:102AC000F8B1002038BDD9063BD5580725D4206978
:102AD00042F0080293B2A2810028EAD103F42072E6
:102AE000B2F5007FE5D02846214600F083FCA3899B
:102AF0002069DEE7636900225B42A260A3610028CF
:102B0000DFD1A3891A06DDD543F040034FF0FF3033
:102B1000A38138BD00F06EF9C5E7216B49B104F11E
:102B20004003994203D0284600F0D2F9A28900233D
:102B3000236322F024020023206992B284E8090072
:102B4000C6E742F0400209234FF0FF302B60A2811C
:102B500038BD00BFA8044020024B13B1024800F06A
:102B600005B8704700000000092E40000146002013
:102B70000246034601F00EBB8B899AB22DE9F04163
:102B80000D46110780463CD46A6843F40063002A6E
:102B9000AB8176DDAE6A002E4BD09BB20021D8F817
:102BA000004003F48052C8F8001092B2002A6CD0A2
:102BB0002A6D5F0705D569682B6B521A0BB1EB6B59
:102BC000D21A4046E9690023B047461C3ED0AB8983
:102BD00000212A6923F4006369602A609BB2DA0449
:102BE000AB814CD4296BC8F8004011B305F1400308
:102BF000994202D0404600F06BF900202863BDE8FE
:102C0000F0812E69AEB12C6891072E60A4EB06040A
:102C10001AD16B69AB600AE0324623466F6A4046C0
:102C2000E969B8470028A4EB0004064404DD002C41
:102C3000F2DC0020BDE8F081AB894FF0FF3043F0BB
:102C40004003AB81BDE8F0810023E3E7D8F8003012
:102C5000B3FA83F2002B18BF1D2B4FEA521201D09A
:102C6000162B27D1AB890026296923F400639BB278
:102C7000AB81DB0485E84200B4D5002AB2D02865D8
:102C8000B0E7EA6B002A85DCD3E701234046E96917
:102C9000B047431C024602D0AB89AE6A89E7D8F838
:102CA0000030002BF8D0162B01D01D2BC4D1C8F852
:102CB0000040BEE7AB8943F04003AB81BDE8F08143
:102CC00010B5044682B008B1836B53B1B1F90C0062
:102CD00008B902B010BD204602B0BDE81040FFF7B1
:102CE0004BBF019100F086F80199EFE7014900F030
:102CF00059BB00BF614240002DE9F84F82460024D5
:102D000037480321DAF804500AF53B720426CAF862
:102D10003C00CAF8E41205F15C00CAF8E82221463A
:102D2000CAF8E0420822AE812C606C60AC606C6630
:102D3000EC812C616C61AC61FFF71CFDDFF8A8B081
:102D4000DAF808604FF00103DFF8A0904FF0090EA9
:102D5000DFF89C802146234F0822ED6106F15C00DC
:102D6000C5F820B0C5F82490C5F82880EF62F3813B
:102D7000A6F80CE034607460B46074663461746109
:102D8000B461FFF7F7FCDAF80C504FF0120C4FF07B
:102D9000020EF6612146C6F820B005F15C00C6F8C7
:102DA00024900822C6F82880F7622C606C60AC6022
:102DB0006C662C616C61AC61A5F80CC0A5F80EE0E6
:102DC000FFF7D8FC0123ED61C5F820B0C5F82490C9
:102DD000C5F82880EF62CAF83830BDE8F88F00BF28
:102DE000ED2C400065414000E540400009414000B5
:102DF00041414000836B03B17047FFF77DBF00BFC7
:102E0000704700BF704700BF38B5084B084DED1A3A
:102E1000AC1018BFED1805D0013C55F8043D98479B
:102E2000002CF9D1BDE8384001F086BB4445400094
:102E300048454000F8B5224F0C46064600F044FFD6
:102E4000BA68204B556825F003052C1B04F6EF7477
:102E50002340A3F58054B4F5805F07DB30460021A2
:102E600001F02EF9BB682B44984204D0304600F0A4
:102E70002DFF0020F8BD3046614201F021F90130FC
:102E80000DD0114A2D1BB9683046136845F0010575
:102E90001B1B4D60136000F019FF0120F8BD304688
:102EA000002101F00DF9BA68831A0F2BDEDD074C03
:102EB00043F00103044924685360001B0860D5E710
:102EC000AC04402000F0FFFF68094020B808402013
:102ED00000294DD02DE9F0410C46804600F0F4FE6B
:102EE000634954F8047CA4F108058E6827F00103B7
:102EF000EA185068964220F0030059D0FE0750604F
:102F00000BD454F8084C01F108072D1B2344AC687E
:102F1000BC4266D0EF68E760BC6014186468E407E0
:102F20000CD4544C03449068A0427CD0D46843F045
:102F30000102C460A0606A60EB5003E043F001024C
:102F40006A60EB50B3F5007F13D2DB0801204A68BA
:102F50009C1001EBC303A0409C680243EB60AC6093
:102F60004A609D60E5604046BDE8F04100F0AEBEBD
:102F700070475A0A042A47D89A0902F138046000B7
:102F800001EB80003A498268824243D0516821F0C7
:102F90000301994202D992689042F7D1D368EB605D
:102FA0004046AA609D60D560BDE8F04100F08EBE4D
:102FB000FF07034407D454F8082CAD1A1344A8683B
:102FC000EA68C26090602C4A43F0010012686860B1
:102FD00093428D60C7D3294B40461968FFF72AFFFB
:102FE000C1E711184968C90709D40344D168926838
:102FF00043F00100D1608A606860EB50B3E743F0B2
:1030000001026A60EB50AEE7142A15D802F15B04A6
:103010006000B5E7A41001274868134607FA04F4D6
:1030200020434860BBE743F001024D610D61E86059
:10303000A8606A60EB5096E7542A04D81A0B02F194
:103040006E0460009CE7B2F5AA7F04D8DA0B02F1A7
:103050007704600094E740F25450824204D89A0CFE
:1030600002F17C0460008BE7FC207E2488E700BF2F
:10307000AC044020B4044020B4084020640940203F
:103080009368002B7AD02DE9F04FB1F80CE083B0B3
:103090000C4681461EF0080F164626D00B6923B356
:1030A0000EF0020835681FFA88F070B34FF0000A7E
:1030B000DFF8ECB2D046D84543465246484628BFD2
:1030C0005B46B8F1000F53D0E169676AB847002842
:1030D00073DDB3688244C0EB0808181AB06000289A
:1030E000E9D1002003B0BDE8F08F48462146FFF744
:1030F000D1FC002840F04C81B4F80CE035680EF0AB
:1031000002081FFA88F00028D0D11EF0010B5DD113
:10311000D846B8F1000F25D01EF4007FA7682FD045
:10312000B845BA46C0F0A8801EF4906F40F0B58054
:1031300020685946524600F065FDA2682168404665
:10314000D71B01EB0A03A7602360B3688344C0EB7D
:103150000808181AB0600028C3D0B4F80CE0B8F121
:10316000000FD9D1D5F800B0083555F8048CD0E758
:10317000D5F800A0083555F8048C9CE7002070476E
:1031800020682369984203D86369984580F0BF801E
:103190004745594628BF47463A4600F033FDA368E5
:1031A0002268DB1B3A44A3602260002B49D14846C9
:1031B0002146FFF785FD002843D0A38943F0400353
:1031C0004FF0FF30A38103B0BDE8F08F8046834607
:1031D00082460090BAF1000F2BD0009B002B4FD0FD
:1031E000D0456269A168434628BF5346206802EB78
:1031F000010C1F46634503DD2169884200F2998076
:10320000934220DB1346676A4846E1695A46B8474D
:10321000071ED2DDB8EB070825D0B368BB44C7EB67
:103220000A0ADF1BB760002F3FF45BAFBAF1000F53
:10323000D3D10023D5F800B0D5F804A00835009309
:10324000C8E7384681E71A465946019300F0DAFC90
:10325000A268B8EB07082168019BA2EB03020B44AC
:10326000A2602360D9D148462146FFF729FD0028F6
:10327000A3D1CDF80080D0E747462068C24658E782
:1032800058460A21524600F0DBFB00287BD0013073
:103290000123CBEB00080093A2E76369216927684B
:1032A00003EB430C7F1A0CEBDC7C7B1C4FEA6C0CB1
:1032B000434462469C4501D29C461A461EF4806FE8
:1032C000CDF800C04BD01146484600F00DF9DDF8AE
:1032D00000C0824600285ED03A462169CDF800C081
:1032E00000F0F6FBA289DDF800C022F4906242F003
:1032F0008002A2810AEB0700C7EB0C02C4F810A001
:1033000047462060C246A260C4F814C011E76FF0BF
:10331000004E676A4846E169C6455A4628BFC64618
:103320009EFBF3FE0EFB03F3B84700283FF70DAFFB
:1033300043E762465946CDF804C000F063FC2368B9
:103340004846DDF804C0214663442360FFF7B8FC1B
:10335000DDF804C000287FF430AF67465AE74846DE
:1033600000F0B6FCDDF800C082460028C2D1484615
:103370002169FFF7ADFDA3890C2223F08003C9F872
:1033800000209BB21AE701230AF10108009327E706
:103390004FF0FF30A6E60C22A389C9F800200DE704
:1033A00000FCFF7F2DE9F84310F538771ED08846E2
:1033B00006464FF000097D68BC68013D10D4A38922
:1033C000013D012B08D9B4F90E30214630460133B6
:1033D00002D0C04749EA00096B1C04F16804EED131
:1033E0003F68002FE7D14846BDE8F883B946484614
:1033F000BDE8F8838B899AB212F0020F3DD1F0B587
:103400000C46B1F90E1091B00546002919DB01AA4E
:1034100000F068FF002812DB029B03F47043A3F561
:103420000057B3F5004FB7FA87F74FEA57172BD07D
:10343000A3894FF4806643F40063A3810CE0A38961
:103440009AB212F0800F43F400634FF000070CBFF4
:103450004FF480664026A3812846314600F044F8A8
:10346000A38940B31A4A43F08003EA63A381206032
:10347000206166619FB911B0F0BD01F143030122E3
:103480000B600B614A617047124BA26A9A42CFD11E
:10349000A3894FF480663343E664A381DCE72846C2
:1034A000B4F90E1000F032FF0028E4D0A38943F0F5
:1034B0000103A381DFE79A05DDD404F1430243F061
:1034C00002030121A381226022616161D3E700BF71
:1034D000ED2C400041414000024B0146186800F0CD
:1034E00003B800BFA80440202DE9F04F01F10B0400
:1034F00083B00546162C27D934F007042AD4A142FC
:1035000028D800F0E1FBB4F5FC7F2BD24FEAD40CB5
:10351000C04E06EBCC02D368934200F071815A682A
:1035200003F10808D968284622F003029C68134476
:10353000E1608C605A6842F001025A6000F0C6FBFC
:10354000404603B0BDE8F08F102903D800F0BCFB63
:103550001024DBE74FF000080C2340462B6003B03B
:10356000BDE8F08F5FEA542C00F08980BCF1040FB5
:1035700000F2C4804FEA941C0CF1380C4FEA4C0066
:10358000A44E06EB8000C368984205D10CE00029E8
:1035900079DADB68984207D05A6822F00302111BDF
:1035A0000F29F4DD0CF1FF3C0CF1010C994F33694C
:1035B00007F1080E734500F019815A6822F00302E2
:1035C000111B0F2900F3CA800029C7F814E0C7F8BF
:1035D00010E06ADAB2F5007F80F09F80D208012007
:1035E00079684FEAA20807EBC20200FA08F0D2F8A5
:1035F00008800843DA60C3F8088078609360C8F8F0
:103600000C304FEAAC030121994081425BD808425B
:1036100006D12CF0030C49000CF1040C0842FAD03E
:1036200006EBCC08E1464046C768B84207D1DFE068
:10363000002A80F2F780FF68B84200F0D9807B68EA
:1036400023F003031A1B0F2AF2DDB846FB6844F08F
:10365000010942F0010C58F8081F3C44C7F80490D7
:103660002846CB60996074613461C4F80CE0C4F8FA
:1036700008E0C4F804C0A25000F028FB60E77E20F8
:103680004FF03F0C7CE71A44DC689E6803F10808A1
:1036900051682846F46041F00103A660536000F0D1
:1036A00015FB404603B0BDE8F08F1A4403F108084B
:1036B0002846536843F00103536000F007FB40467F
:1036C00003B0BDE8F08FB7687A6822F00308C4EB56
:1036D00008020F2A56DDA04554D344F0010342F0FE
:1036E00001023C4407F108087B602846B460626030
:1036F00000F0ECFA404603B0BDE8F08FBCF1140FC7
:1037000040F29F80BCF1540F00F227814FEA143C35
:103710000CF16E0C4FEA4C0032E7510A042940F2DA
:103720009580142900F2428101F15B07780006EBD5
:103730008000DFF8E0908168814200F01B814F68D3
:1037400027F00307BA4202D289688842F7D1CA68D3
:103750007068DA6099609360CB6052E744F00106CC
:1037600041F001021C4428465E6003F108087C61B8
:103770003C61C4F80CE0C4F808E06260615000F0FD
:10378000A5FADDE6244A254B11681B680131234464
:1037900000F0098141F20F01DFF88490194401EA39
:1037A000090928464946019200F08AFCB0F1FF3F22
:1037B0008246019A00F00181BB1B07EB0801154806
:1037C00018BF0123514567D9002B65D087687B68F6
:1037D00023F003031A1B0F2A02DD9C427FF67DAF04
:1037E00028464FF0000800F071FAA9E6786808E76B
:1037F00009F10109083019F0030F7FF415AF2FE02C
:1038000003F108025B699A4208BF0CF1020C3FF415
:10381000CDAE84E6AC044020B808402064094020C6
:1038200000F0FFFFFA18B846F9682846536858F8C0
:10383000084F43F001035360E1608C6000F046FAEA
:103840007EE60CF15B0C4FEA4C0099E6910901F120
:10385000380778006BE7D8F80080984540F0E6809C
:103860001CF0030FA8F108030CF1FF3CF3D17368BF
:1038700023EA01037360490099423FF624AF00290F
:103880003FF421AF0B42CC467FF4CAAE49000CF1A5
:10389000040C0B42FAD0C3E6DFF89CB15145DBF8CB
:1038A00000004844CBF8000000F08C801268DFF87C
:1038B0008CE1013200F0A380C1EB0A010844CBF88F
:1038C00000001AF0070152D0C1F1080041F20802CD
:1038D0008244521A0AEB090128460193C1F30B01F5
:1038E000C1EB0209494600F0EBFB431C019B7AD077
:1038F000CAEB00024A4442F00102DBF80000C6F8BD
:1039000008A04844CAF80420DFF82C91CBF8000046
:10391000A3B1B8F10F0F37D97B68A8F10C024FF0B3
:10392000050E22F0070203F00103B91813430F2A12
:103930007B60C1F804E0C1F808E058D83C4B1A6835
:10394000904200D918603B4BB7681A68904200D982
:1039500018607B6823F003033CE7BCF5AA7F17D807
:103960004FEAD43C0CF1770C4FEA4C0008E64FF4D8
:103970008052AFE7BF1001200A46B840D9F8047062
:103980003843C9F80400E4E60123CAF8043027E705
:1039900040F254539C4522D84FEA944C0CF17C0CD5
:1039A0004FEA4C00ECE503F11009FAE6542929D856
:1039B000110B01F16E077800B9E6B7687B6823F058
:1039C000030307E7C1F30B0EBEF1000F7FF46EAFE8
:1039D00009EB0803B26843F001035360AEE7FC2033
:1039E0004FF07E0CCCE501224FF0000985E7284618
:1039F00007F10801FFF76CFAD9F800009EE7CEF84E
:103A000000A05EE7B1F5AA7F04D8D10B01F17707DA
:103A100078008CE640F25450814204D8910C01F1B8
:103A20007C07780083E6FC207E2780E6736822E727
:103A3000600940205C09402068094020B808402007
:103A40008307C9B270B43FD0541E002A3ED0037819
:103A50008B4218BF431C05D11CE0ECB10278013C3D
:103A60008A4217D013F0030F184603F10103F4D173
:103A7000032C14D884B103788B420BD00519431C56
:103A800002E002788A4205D0AB42184603F10103F6
:103A9000F7D1002070BC7047204670BC704741EAE7
:103AA0000126024646EA0646104604320368734081
:103AB000A3F1013525EA030313F0803FDAD1043C7A
:103AC0001046032CF0D8D5E71446D1E71046E1E7BD
:103AD000844641EA000313F003036DD1403A41D319
:103AE00051F8043B40F8043B51F8043B40F8043BD8
:103AF00051F8043B40F8043B51F8043B40F8043BC8
:103B000051F8043B40F8043B51F8043B40F8043BB7
:103B100051F8043B40F8043B51F8043B40F8043BA7
:103B200051F8043B40F8043B51F8043B40F8043B97
:103B300051F8043B40F8043B51F8043B40F8043B87
:103B400051F8043B40F8043B51F8043B40F8043B77
:103B500051F8043B40F8043B51F8043B40F8043B67
:103B6000403ABDD2303211D351F8043B40F8043B07
:103B700051F8043B40F8043B51F8043B40F8043B47
:103B800051F8043B40F8043B103AEDD20C3205D317
:103B900051F8043B40F8043B043AF9D2043208D00F
:103BA000D2071CBF11F8013B00F8013B01D30B8881
:103BB00003806046704700BF082A13D38B078DD05F
:103BC00010F003038AD0C3F10403D21ADB071CBF31
:103BD00011F8013B00F8013B80D331F8023B20F89B
:103BE000023B7BE7043AD9D3013A11F8013B00F8D4
:103BF000013BF9D20B7803704B7843708B7883705C
:103C0000604670478842F0B50DD98B1898420AD2A9
:103C10008118002A53D09A1A13F8014D934201F8E3
:103C2000014DF9D1F0BD0F2A47D940EA01039B07A6
:103C300046D100F1100401F11003154653F8106C41
:103C4000103D1033103444F8206C0F2D53F81C6CC9
:103C500044F81C6C53F8186C44F8186C53F8146C46
:103C600044F8146CEAD8A2F1100302F00F0E23F00E
:103C70000F03BEF1030F03F110031944034421D9CC
:103C80001E1F0D467446043C55F8047B032C46F871
:103C9000047FF8D8AEF1040402F0030224F0030418
:103CA00004342344214452B1013B0A4411F8014B2E
:103CB000914203F8014FF9D1F0BD0346F3E7F0BD9F
:103CC0000346F1E77246EEE7704700BF704700BF5A
:103CD0002DE9F04F174683B00E46002900F0E28030
:103CE00007F10B048146FFF7EFFF56F8043C162C52
:103CF000A6F1080823F0030550D81022002114462D
:103D0000BC42C0F0DC80002940F0D98095424ADAFC
:103D1000DFF8A8B308EB0501DBF80800884200F0E3
:103D2000D380486820F0010E8E44DEF804E01EF0D7
:103D3000010F4ED120F003002844904280F2B88059
:103D4000DB0700F18B8056F8083CC3EB080ADAF871
:103D5000043023F0030300EB030E964543DBCB68EE
:103D6000574689682A1FCB60242A996057F8081F94
:103D7000DAF80C30CB60996000F23C81132A40F2F3
:103D8000FA8033681B2ACAF808307368CAF80C3006
:103D900000F23B8108360AF11003EDE024F007043D
:103DA0002246E10FACE737462A1B03F001030F2A36
:103DB00041D808EB05021D43C8F80450536843F08E
:103DC000010353604846FFF781FF384603B0BDE862
:103DD000F08FD90742D456F8083CC3EB080ADAF84A
:103DE000043023F003032B44934237DB57462A1F4A
:103DF000DAF80C1057F8080F242AC160886000F226
:103E0000C680132A40F2FF8031681B2ACAF80810C6
:103E10007168CAF80C1000F20D8108360AF1100220
:103E200031681D46D046116073685360B368936073
:103E3000DAF80430B8E708EB040542F001061C4349
:103E400048462A4405F10801C8F804406E605368EA
:103E500043F001035360FFF73BF8B3E739464846A8
:103E6000FFF742FB07460028ACD056F8043CA0F10F
:103E7000080123F001024244914200F0B4802A1F5D
:103E8000242A00F2A180132A6AD803463246116818
:103E900019605168596092689A6031464846FFF748
:103EA00017F88FE7114603B0BDE8F04FFFF71CBBD2
:103EB000CA68374689680546CA60916074E70C2372
:103EC0000020C9F8003081E7416804F1100021F0BA
:103ED00003012944814263DADB07BFD456F8083C6A
:103EE000C3EB080ADAF8043023F0030301EB030CF8
:103EF00060453FF778AF57462A1FDAF80C3057F87D
:103F0000081F242ACB60996000F2B880132A40F27F
:103F1000A88033681B2ACAF808307368CAF80C30C6
:103F200000F2B58008360AF1100332681A60726830
:103F30005A60B2689A60C4EB0C030AEB040248466C
:103F400043F00103CBF808205360DAF8043003F0A3
:103F500001031C43CAF80440FFF7B8FE384635E7B2
:103F600033681B2A03607368436031D800F108038B
:103F700006F108028BE73B4632687546D0461A6068
:103F800072685A60B2689A60DAF804300CE7314619
:103F900038461D46D046FFF735FEDAF8043003E711
:103FA0000B1B08EB0402484643F00103CBF8082042
:103FB000536056F8043C03F001031C4346F8044CDC
:103FC000FFF784FE304601E73146FFF71BFE64E74A
:103FD000B368242A8360F368C36022D000F1100321
:103FE00006F1100253E750F8042C374622F0030282
:103FF0001544D9E6314638467546D046FFF702FEED
:10400000DAF80430D0E63A460AE7B368242ACAF858
:104010001030F368CAF8143018D010360AF11803BB
:10402000AAE7316900F1180306F11802016171690C
:1040300041612CE7B168242ACAF81010F168CAF867
:10404000141010D010360AF11802E9E632690AF1AC
:1040500020031836CAF8182056F8042CCAF81C2079
:104060008AE73B4661E731690AF120021836CAF84F
:10407000181056F8041CCAF81C10D1E63146384610
:10408000CDF804C0FFF7BEFDDDF804C053E7B36808
:10409000242ACAF81030F368CAF8143003D0103656
:1040A0000AF1180341E732690AF120031836CAF809
:1040B000182056F8042CCAF81C2036E7AC0440201F
:1040C00038B50023064C054608462360FDF74CFC36
:1040D000431C00D038BD2368002BFBD02B6038BDBB
:1040E0007411402010B50C46B1F90E1000F034F9EF
:1040F000002803DB236D0344236510BDA38923F44B
:104100008053A38110BD00BF2DE9F0411D468B896E
:1041100016460C46DA05074606D50223B1F90E10FD
:10412000002200F005F9A38923F480533846B4F93E
:104130000E103246A3812B46BDE8F04100F016B8C0
:1041400010B50C46B1F90E1000F0F2F8421CA3892C
:1041500004D043F480532065A38110BD23F4805321
:10416000A38110BDB1F90E1000F068B870B5084C0D
:1041700000250646084611461A462560FCF7F2F966
:10418000431C00D070BD2368002BFBD0336070BD92
:10419000741140202DE9F047264C0646884691468A
:1041A00025689A46D5F84841002C3AD060681F2807
:1041B00019DC411C86B104EB80050122022EC5F8F2
:1041C000889002FA00F2D4F8883143EA0203C4F876
:1041D0008831C5F808A11ED0831C6160002044F816
:1041E0002380BDE8F087144B03B34FF4C870FFF78A
:1041F00073F90446D0B1D5F8483100270121036096
:1042000038466760C5F84841C4F88871C4F88C71B5
:10421000002EE1D0CFE7D4F88C311A43C4F88C21BA
:10422000DAE705F5A674C5F84841BFE74FF0FF305F
:10423000BDE8F0871C454000D934400038B5002364
:10424000064C054608462360FDF7BAFB431C00D028
:1042500038BD2368002BFBD02B6038BD7411402083
:1042600000293DD070B505460C4608B1836B7BB381
:10427000B4F90C300BB9002070BD28462146FEF77A
:104280007BFCE36A064633B12846E169984700287B
:10429000B8BF4FF0FF36A3891B061CD4216B41B178
:1042A00004F14003994202D02846FEF711FE002394
:1042B0002363616C21B12846FEF70AFE0023636484
:1042C000FEF79EFD0023A381FEF79CFD304670BDE6
:1042D000FEF790FDCCE728462169FEF7F9FDDDE702
:1042E0000020704738B50023074C054608461146A4
:1042F0002360FDF771FB431C00D038BD2368002B01
:10430000FBD02B6038BD00BF7411402038B50023AE
:10431000064C054608462360FDF76EFB431C00D0A3
:1043200038BD2368002BFBD02B6038BD74114020B2
:1043300070B5084C00250646084611461A46256009
:10434000FDF766FB431C00D070BD2368002BFBD03B
:10435000336070BD7411402070B5084C00250646CE
:10436000084611461A462560FCF7D0F8431C00D0D9
:1043700070BD2368002BFBD0336070BD74114020EA
:1043800000C20100C00000000008000000000000A2
:1043900000000000000000002D462D2053797374AA
:1043A00069636B20636F6E66696775726174696FAC
:1043B0006E206572726F720D0000000060090000CF
:1043C000C00000000008000000000000256300009D
:1043D00052656164790D0A00436C65616E0D0A00D7
:1043E00044697274790D0A004572726F720D0A0089
:1043F0005368656C66310D0A000000005368656CF7
:1044000066320D0A000000005368656C66330D0AC1
:10441000000000005368656C66340D0A000000005F
:10442000436C65616E696E670D0A00002D2D205585
:1044300053415254205253343835204578616D70C1
:104440006C65202D2D0D0A2D2D2053414D45373003
:104450002D58504C44202D2D0D0A2D2D20436F6DCD
:1044600070696C65643A20466562202039203230DC
:1044700031362032303A30333A3134202D2D0D0090
:104480002D492D205374617274207472616E736DA6
:10449000697474696E67210D000000002D492D209C
:1044A000526563656976696E672073796E63206310
:1044B00068617261637465722E0D00002D492D20B4
:1044C000537461727420726563656976696E6721E1
:1044D0000D0000002D452D204572726F72206F6314
:1044E000637572726564207768696C6520726563B4
:1044F000656976696E67210D000000002D492D2049
:10450000526563656976656420737563636573736B
:1045100066756C6C79210D0043000000800040201E
:104520000A000000F8B500BFF8BC08BC9E46704702
:10453000592B400065014000F8B500BFF8BC08BC2D
:084540009E4670474101400056
:1045480000093D00A409402055AA91000000000080
:1045580055AA92000000000055AA93000000000030
:1045680055AA94000000000055AA9500000000001C
:1045780055AA96000000000055AA97000000000008
:1045880055AA98000000000055AA990000000000F4
:1045980055AACE000000000008004020100040206E
:1045A80018004020200040202800402030004020F3
:1045B8003800402040004020480040205000402063
:1045C800000000006C034020D40340203C0440203D
:1045D80000000000000000000000000000000000D3
:1045E80000000000000000000000000000000000C3
:1045F8000000000018454000000000000000000016
:1046080000000000000000000000000000000000A2
:104618000000000000000000000000000000000092
:104628000000000000000000000000000000000082
:104638000000000000000000000000000000000072
:104648000000000000000000000000000000000062
:104658000000000000000000000000000000000052
:104668000000000000000000010000000000000041
:104678000E33CDAB34126DE6ECDE05000B00000006
:104688000000000000000000000000000000000022
:104698000000000000000000000000000000000012
:1046A8000000000000000000000000000000000002
:1046B80000000000000000000000000000000000F2
:1049E80000000000000000008000402000000000DF
:1049F80000000000AC044020AC044020B404402077
:104A0800B4044020BC044020BC044020C40440201E
:104A1800C4044020CC044020CC044020D4044020CE
:104A2800D4044020DC044020DC044020E40440207E
:104A3800E4044020EC044020EC044020F40440202E
:104A4800F4044020FC044020FC04402004054020DD
:104A5800040540200C0540200C054020140540208A
:104A6800140540201C0540201C054020240540203A
:104A7800240540202C0540202C05402034054020EA
:104A8800340540203C0540203C054020440540209A
:104A9800440540204C0540204C054020540540204A
:104AA800540540205C0540205C05402064054020FA
:104AB800640540206C0540206C05402074054020AA
:104AC800740540207C0540207C054020840540205A
:104AD800840540208C0540208C054020940540200A
:104AE800940540209C0540209C054020A4054020BA
:104AF800A4054020AC054020AC054020B40540206A
:104B0800B4054020BC054020BC054020C405402019
:104B1800C4054020CC054020CC054020D4054020C9
:104B2800D4054020DC054020DC054020E405402079
:104B3800E4054020EC054020EC054020F405402029
:104B4800F4054020FC054020FC05402004064020D8
:104B5800040640200C0640200C0640201406402085
:104B6800140640201C0640201C0640202406402035
:104B7800240640202C0640202C06402034064020E5
:104B8800340640203C0640203C0640204406402095
:104B9800440640204C0640204C0640205406402045
:104BA800540640205C0640205C06402064064020F5
:104BB800640640206C0640206C06402074064020A5
:104BC800740640207C0640207C0640208406402055
:104BD800840640208C0640208C0640209406402005
:104BE800940640209C0640209C064020A4064020B5
:104BF800A4064020AC064020AC064020B406402065
:104C0800B4064020BC064020BC064020C406402014
:104C1800C4064020CC064020CC064020D4064020C4
:104C2800D4064020DC064020DC064020E406402074
:104C3800E4064020EC064020EC064020F406402024
:104C4800F4064020FC064020FC06402004074020D3
:104C5800040740200C0740200C0740201407402080
:104C6800140740201C0740201C0740202407402030
:104C7800240740202C0740202C07402034074020E0
:104C8800340740203C0740203C0740204407402090
:104C9800440740204C0740204C0740205407402040
:104CA800540740205C0740205C07402064074020F0
:104CB800640740206C0740206C07402074074020A0
:104CC800740740207C0740207C0740208407402050
:104CD800840740208C0740208C0740209407402000
:104CE800940740209C0740209C074020A4074020B0
:104CF800A4074020AC074020AC074020B407402060
:104D0800B4074020BC074020BC074020C40740200F
:104D1800C4074020CC074020CC074020D4074020BF
:104D2800D4074020DC074020DC074020E40740206F
:104D3800E4074020EC074020EC074020F40740201F
:104D4800F4074020FC074020FC07402004084020CE
:104D5800040840200C0840200C084020140840207B
:104D6800140840201C0840201C084020240840202B
:104D7800240840202C0840202C08402034084020DB
:104D8800340840203C0840203C084020440840208B
:104D9800440840204C0840204C084020540840203B
:104DA800540840205C0840205C08402064084020EB
:104DB800640840206C0840206C084020740840209B
:104DC800740840207C0840207C084020840840204B
:104DD800840840208C0840208C08402094084020FB
:104DE800940840209C0840209C084020A4084020AB
:0C4DF800A408402000000200FFFFFFFFA5
:04000005004016E1C0
:00000001FF
