:020000040040BA
:10000000F832402055234000D9234000D923400036
:10001000D9234000D9234000D9234000000000002C
:10002000000000000000000000000000D923400094
:10003000D923400000000000D92340005938400077
:10004000D9234000D9234000D9234000D9234000C0
:10005000D9234000D9234000D9234000D9234000B0
:10006000D9234000000000008D134000A51340007C
:10007000BD13400081384000D9234000D9234000FF
:10008000D5134000ED134000D9234000D923400090
:10009000D9234000D9234000D9234000D923400070
:1000A000D9234000D9234000D9234000D923400060
:1000B000D923400059124000D9234000D53B4000CD
:1000C000D9234000D9234000D9234000D923400040
:1000D00000000000D923400000000000D9234000A8
:1000E0006D124000D9234000D9234000D92340009D
:1000F000D9234000D9234000D9234000D923400010
:10010000D9234000D9234000D9234000D9234000FF
:10011000D9234000000000000000000000000000A3
:10012000D9234000D9234000D9234000D9234000DF
:10013000D923400000000000D9234000D92340000B
:1001400010B5054C237833B9044B13B10448AFF311
:1001500000800123237010BD04094020000000002E
:1001600014A64000084B10B51BB108480849AFF36E
:1001700000800848036803B910BD074B002BFBD073
:10018000BDE81040184700BF0000000014A6400062
:100190000809402014A640000000000080B582B08D
:1001A00000AF78607B68072B30D801A252F823F0AB
:1001B0000D024000D1014000D9014000E1014000A2
:1001C000E9014000F1014000F90140000302400054
:1001D0000020104B984719E001200E4B984715E07E
:1001E00000200D4B984711E010200B4B98470DE075
:1001F0002020094B984709E000203E21074B9847F3
:1002000004E001203E21054B984700BF0837BD465A
:1002100080BD00BF011540006D154000DD15400098
:1002200080B582B000AF78607B68072B26D801A22A
:1002300052F823F055024000590240005902400094
:100240006B0240006B0240006B0240006B024000FA
:100250006B024000012312E00B4B98470346002B32
:1002600014BF01230023DBB209E0084B9847034683
:10027000002B14BF01230023DBB200E0002318464B
:100280000837BD4680BD00BF3915400055164000F7
:1002900080B483B000AF78607B68072B25D801A2BB
:1002A00052F823F0C5024000CB024000D1024000CA
:1002B000D7024000DB024000DF024000E3024000C2
:1002C000E70240004FF4FA4310E04FF400430DE022
:1002D0004FF400430AE0084B08E0084B06E0084BE7
:1002E00004E0084B02E0064B00E0002318460C3700
:1002F000BD465DF8047B704700093D0000127A009E
:10030000001BB7000024F40080B582B000AF0346A4
:10031000FB7100BFFB791846054B9847034683F0F5
:100320000103DBB2002BF5D10837BD4680BD00BF0D
:100330002102400080B586B000AFF8607A603B6073
:100340000B46FB727B68002B07D13B68002B04D166
:10035000FB684FF470021A6019E0FB7A18460D4BE7
:10036000984702467B68B2FBF3F37B617B693A688E
:1003700002FB03F37B613B68013B1A04064B13400D
:100380007A68D2B2134343F47C52FB681A60183780
:10039000BD4680BD910240000000FF0780B582B0DD
:1003A00000AF786039603B68002B08D1084B984754
:1003B000084A7B681B6843F00053936205E0054AD6
:1003C0007B681B6843F48033D3610837BD4680BD2A
:1003D0007116400000060E4080B582B000AF786014
:1003E0007B68002B03D1054B9847034602E0044B82
:1003F0009847034618460837BD4680BD8916400019
:10040000A516400080B582B000AF0346FB71FB79B2
:10041000033B042B08D8FB791846054B9847FB791A
:100420001846044B984700E000BF0837BD4680BD22
:100430009D0140000903400080B582B000AF7860A4
:1004400000BF7868044B98470346002BF9D000237F
:1004500018460837BD4680BDD903400080B500AFBF
:100460000620054B9847024613469B0013449A000A
:1004700013449B08184680BD9102400080B500AF30
:10048000024B98470346184680BD00BF5D044000FC
:1004900090B583B000AF1348134B98470620134B19
:1004A00098473B1D1846062104221923104CA047EB
:1004B0003B1D184600210F4B984700200E4B9847D4
:1004C00001200E4B984700200D4B98470D4B984745
:1004D0000D4B984703461846034B98470C37BD46CB
:1004E00090BD00BF00A3E111492540000504400074
:1004F000350340009D0340003904400005144000CE
:100500007D144000E12340007D04400080B586B0AA
:1005100000AFF860B9607A6000237B61FB68002B54
:1005200002D04FF0FF3314E00FE00C4B1B680C4A75
:1005300012681046B9689847BB680133BB607B6995
:1005400001337B617B68013B7B607B68002BECDCCB
:100550007B6918461837BD4680BD00BF080A402099
:10056000100A402080B586B000AFF860B9607A60AC
:1005700000237B61FB68012B08D0FB68022B05D0B0
:10058000FB68032B02D04FF0FF331AE015E00F4B4E
:100590001A680F4B1868BB68591CB9601B7819465C
:1005A00090470346002B02DA4FF0FF3309E07B69E6
:1005B00001337B617B68013B7B607B68002BE6D16C
:1005C0007B6918461837BD4680BD00BF0C0A402025
:1005D000100A402080B582B000AF78607868024B86
:1005E00098470837BD4680BDC116400080B500AFB2
:1005F0000A20074B98470B20054B98470C20044BCB
:1006000098471020024B98471120014B984780BD16
:10061000D505400080B489B000AF78607B68FB618D
:10062000FB69BB61BB695A09FB697B617B6903F0AC
:100630001F03012101FA03F33A61FB603B69BB60D0
:10064000BA68054B13445B021A46FB6853602437B3
:10065000BD465DF8047B70470707200080B487B073
:1006600000AF786039607B687B613B683B617B6988
:10067000FB60FA68054B13445B021A463B69536002
:100680001C37BD465DF8047B704700BF070720009C
:1006900080B48BB000AFF860B9607A60FB687B62B1
:1006A000BB683B627B68FB617B6ABB61BA69374BA5
:1006B00013445B027B61FB6903F00803002B03D04A
:1006C0007B693A6A5A6602E07B693A6A1A66FB6994
:1006D00003F01003002B04D07B693A6AC3F894201E
:1006E00003E07B693A6AC3F89020FB6903F02003BA
:1006F000002B03D07B693A6A1A6502E07B693A6A8B
:100700005A65FB6903F0C003002B03D07B693A6A8A
:100710001A6202E07B693A6A5A62FB6903F080035D
:10072000002B04D07B693A6AC3F8842003E07B691C
:100730003A6AC3F88020FB6903F00103002B06D05E
:100740007B691A6F3B6A1A437B691A6706E07B690B
:100750001A6F3B6ADB431A407B691A67FB6903F037
:100760000203002B06D07B695A6F3B6A1A437B69F0
:100770005A6706E07B695A6F3B6ADB431A407B6924
:100780005A672C37BD465DF8047B70470707200089
:1007900080B48DB000AF786039607B68FB623B68E5
:1007A000BB62FB6A7B627B6A5A09FB6A3B623B6AFB
:1007B00003F01F03012101FA03F3FA61BB61BB6A75
:1007C0007B61FB693B613A69374B13445B02FB6019
:1007D0007B6903F00803002B03D0FB68BA695A66F3
:1007E00002E0FB68BA691A667B6903F01003002B0C
:1007F00004D0FB68BA69C3F8942003E0FB68BA69C7
:10080000C3F890207B6903F02003002B03D0FB6822
:10081000BA691A6502E0FB68BA695A657B6903F038
:10082000C003002B03D0FB68BA691A6202E0FB68C0
:10083000BA695A627B6903F08003002B04D0FB681D
:10084000BA69C3F8842003E0FB68BA69C3F8802062
:100850007B6903F00103002B06D0FB681A6FBB69AC
:100860001A43FB681A6706E0FB681A6FBB69DB4333
:100870001A40FB681A677B6903F00203002B06D05D
:10088000FB685A6FBB691A43FB685A6706E0FB684E
:100890005A6FBB69DB431A40FB685A673437BD4661
:1008A0005DF8047B704700BF0707200080B48DB05F
:1008B00000AF78600B46FB707B68FB62FB7887F8C3
:1008C0002B30FB6A7B627B6A3B623B6A5B09FB61A4
:1008D000FA69174B13445B02BB6197F82B30012B6D
:1008E00009D1FB6A7B617B6903F01F0301229A40F7
:1008F000BB691A610CE097F82B30002B08D1FB6A1A
:100900003B613B6903F01F0301229A40BB695A61B6
:10091000FB6AFB60FB6803F01F0301229A40BB697E
:10092000C3F8A0203437BD465DF8047B704700BF94
:100930000707200080B48BB000AF78600B46FB70D7
:100940007B687B62FB7887F823307B6AFB61FB69FD
:10095000BB61BB695B097B617A69104B13445B0225
:100960003B6197F82330002B09D07B6AFB60FB6862
:1009700003F01F0301229A403B691A6308E07B6A77
:10098000BB60BB6803F01F0301229A403B695A63B6
:100990002C37BD465DF8047B704700BF0707200079
:1009A00080B48DB000AF78600B46FB707B68FB6253
:1009B000FB7887F82B30FB6A7B627B6A5A09FB6AFB
:1009C0003B623B6A03F01F03012101FA03F3FA6162
:1009D000BB6197F82B30FB75FB693B613A69224B91
:1009E00013445B02FB60FB7D013B032B2ED801A26D
:1009F00052F823F0290A40003B0A4000050A400053
:100A0000170A4000FB68BA69C3F8C420FB68BA69DA
:100A1000C3F8D0201FE0FB68BA69C3F8C420FB68A4
:100A2000BA69C3F8D42016E0FB68BA69C3F8C020DD
:100A3000FB68BA69C3F8D0200DE0FB68BA69C3F857
:100A4000C020FB68BA69C3F8D42004E0FB68BA6927
:100A5000C3F8B42003E0FB68BA69C3F8B0203437A8
:100A6000BD465DF8047B70470707200080B500AFE6
:100A7000374B4FF400425A60364B984750200121C3
:100A8000354B984750200121344B984702200121D3
:100A9000314B984702200121304B9847012001211A
:100AA0002D4B9847012001212C4B98470020012114
:100AB000294B984700200021284B984715200121F9
:100AC000254B984715200021244B98470B200021E7
:100AD000214B98470B208821214B98470B2002215E
:100AE000204B984700204FF4C06100221E4B9847CE
:100AF00000204FF4C0611D4B984703200021184B84
:100B0000984703201A4B984704200021144B98471C
:100B10000420174B98470B200121114B98470B20BD
:100B2000134B9847202002210D4B98472020104B53
:100B30009847212002210A4B984721200C4B9847C7
:100B400023200221064B98472320094B984780BD5C
:100B500050180E40ED054000AD084000350940003A
:100B600091074000A1094000910640005D06400049
:100B70001506400080B483B000AF0346FB710849FE
:100B800097F907305B09FA7902F01F02012000FA99
:100B900002F241F823200C37BD465DF8047B704714
:100BA00000E100E080B483B000AF0346FB71094967
:100BB00097F907305B09FA7902F01F02012000FA69
:100BC00002F2603341F823200C37BD465DF8047B08
:100BD000704700BF00E100E080B483B000AF03467F
:100BE0003960FB7197F90730002B0BDA0D49FB795F
:100BF00003F00F03043B3A68D2B25201D2B20B4465
:100C00001A7609E0084997F907303A68D2B25201DA
:100C1000D2B20B4483F800230C37BD465DF8047B49
:100C2000704700BF00ED00E000E100E080B483B059
:100C300000AFEFF310833B603B68002B0CBF012338
:100C40000023DBB27B6072B6BFF35F8F044B0022E0
:100C50001A707B6818460C37BD465DF8047B7047F8
:100C60000000402080B483B000AF78607B68002B28
:100C700014BF01230023DBB218460C37BD465DF8D4
:100C8000047B704780B582B000AF78607868074B0E
:100C900098470346002B05D0054B01221A70BFF37D
:100CA0005F8F62B60837BD4680BD00BF650C40004F
:100CB0000000402080B483B000AF78600B467B809A
:100CC0000C37BD465DF8047B704700BF80B483B02D
:100CD00000AF78607B681B6B18460C37BD465DF82B
:100CE000047B704780B584B000AF0346FB71FB798D
:100CF0000A4AD35CFF2B00D1FEE7094B9847F86006
:100D0000FB79064AD25C0132D1B2044AD154F86868
:100D1000044B98471037BD4680BD00BF000A4020F5
:100D20002D0C4000850C400080B483B000AF78608B
:100D30007B68072B25D801A252F823F05D0D4000F7
:100D4000630D4000690D40006F0D4000730D4000C1
:100D5000770D40007B0D40007F0D40004FF4FA43BB
:100D600010E04FF400430DE04FF400430AE0084B5D
:100D700008E0084B06E0084B04E0084B02E0064B95
:100D800000E0002318460C37BD465DF8047B704731
:100D900000093D0000127A00001BB7000024F40097
:100DA00080B500AF0620054B9847024613469B00CE
:100DB00013449A0013449B08184680BD290D400037
:100DC00080B500AF024B98470346184680BD00BF70
:100DD000A10D400080B483B000AF78607B68094A01
:100DE000934201D1012306E07B68074A934201D177
:100DF000002300E0002318460C37BD465DF8047B55
:100E0000704700BF0040064000C0034080B483B07C
:100E100000AF78607B68094A934201D1282306E03D
:100E20007B68074A934201D11D2300E01D23184629
:100E30000C37BD465DF8047B704700BF004006409C
:100E400000C0034080B485B000AF786039600023F3
:100E5000FB603B68DB7C002B02D04FF0004200E0DF
:100E600000223B6859683B689B68B1FBF3F3013B88
:100E70001B029BB21A433B681B7C1B0603F070638A
:100E80001A433B685B7C1B0703F040531A433B68E3
:100E9000DB68134343F40003FB607B68FA685A6025
:100EA0003B681B7D002B02D04FF0807200E00022D7
:100EB0003B681B681A433B685B7D002B02D04FF0F8
:100EC000007300E000231A437B689A603B689B7DB7
:100ED0001B0203F4407343F00C027B68C3F89420B8
:100EE0001437BD465DF8047B704700BF80B586B0FF
:100EF00000AFF8600B467A607B817B89F868194601
:100F00001D4B984700237B61FB681B6E7B617B89CF
:100F1000012202FA03F3DB437A6913407B617B68A9
:100F20001B78002B04D07B89012202FA03F300E036
:100F300000237A6913437B61FB687A691A66FB6850
:100F40005B6D7B617B895B00032202FA03F3DB4369
:100F50007A6913407B617B685B781A467B895B000A
:100F600002FA03F31A467B6913437B61FB687A69D3
:100F70005A651837BD4680BDB50C400080B582B0BB
:100F800000AF78607B6800221A60124B98470246D7
:100F90007B685A607B68104A9A607B684FF48022B5
:100FA000DA607B6802221A747B6801225A747B68BB
:100FB00001229A747B680022DA747B6801221A7518
:100FC0007B6801225A757B6801229A750837BD46F5
:100FD00080BD00BFC10D4000808D5B0080B483B038
:100FE00000AF78607B6800221A707B6801225A701B
:100FF0000C37BD465DF8047B704700BF80B584B0F8
:1010000000AF786039607868174B9847034603F063
:101010008073002B01D0192321E07B6801221A6024
:1010200078683968114B98470023FB6013E0002370
:10103000BB600AE00E49FB681A01BB68134400223A
:1010400041F82320BB680133BB60BB680F2BF1D98B
:10105000FB680133FB60FB68012BE8D900235BB21E
:1010600018461037BD4680BDCD0C4000450E4000EF
:10107000140A402080B586B000AFF860B9607A608D
:10108000FB70F868174B9847786117497B691A011C
:10109000BB6813447A6841F823207B69002B0BD18D
:1010A0001D20124B9847FB781D201946104B98477E
:1010B0001D20104B98470DE07B69012B0AD1282099
:1010C0000A4B9847FB7828201946094B9847282057
:1010D000084B9847F868B968074B98471837BD46DA
:1010E00080BD00BFD50D4000140A4020A50B400074
:1010F000D90B4000750B4000FD10400080B483B058
:1011000000AF786039603B68194A934203D17B682D
:10111000174A5A6226E03B680B2B0FD83B680B2B13
:1011200004D17B684FF400625A621BE03B680122E5
:1011300002FA03F31A467B685A6213E03B680E2BEF
:1011400008D83B680C331A46012393401A467B6843
:101150005A6207E03B680F331A46012393401A4650
:101160007B685A620C37BD465DF8047B704700BF50
:10117000FF0F004780B582B000AF03463960FB71B6
:10118000FB7909491A013B68134451F82330002BBD
:1011900007D0FB7904491A013B68134451F8233006
:1011A00098470837BD4680BD140A402080B586B0F8
:1011B00000AF78607868254B98470346FB607868F5
:1011C000234B9847386100237B6139E07B690B2B07
:1011D0000FD87B69012202FA03F31A46FB68134019
:1011E000002B2AD03B69DBB218467969194B984726
:1011F00023E07B690E2B10D87B690C331A46012340
:1012000093401A46FB681340002B16D03B69DBB2B3
:10121000184679690F4B98470FE07B690F331A46E0
:10122000012393401A46FB681340002B05D03B690D
:10123000DBB218467969074B98477B6901337B61BC
:101240007B690F2BC2D91837BD4680BDCD0C40003D
:10125000D50D40007511400080B500AF0148024B2C
:10126000984780BD00C00340AD11400080B500AF7D
:101270000148024B984780BD00400640AD11400038
:1012800080B584B000AF78607868064B9847F86006
:10129000F868054B98470220044B98471037BD4625
:1012A00080BD00BF0D0E4000C1164000E50C40009F
:1012B00080B483B000AF78607B68DB6C18460C3775
:1012C000BD465DF8047B704780B483B000AF7860A2
:1012D0007B689B6C18460C37BD465DF8047B7047F5
:1012E00080B584B000AF786039607868244B984747
:1012F000F8607868234B98470246FB681340FB6010
:10130000FB68002B38D00023BB6032E01E4ABB686C
:101310001B0113441A683B689A4223D11A4ABB68DE
:101320001B0113445A68FB681340002B1AD0164A5D
:10133000BB681B01134408335B681349BA68120188
:101340000A4410681049BA6812010A4452681146EA
:1013500098470D4ABB681B0113445B68DB43FA687E
:101360001340FB60BB680133BB60BB68062B00D930
:1013700002E0FB68002BC9D11037BD4680BD00BF1D
:10138000B1124000C91240002009402080B500AFD2
:1013900002480A21024B984780BD00BF000E0E4054
:1013A000E112400080B500AF02480B21024B984784
:1013B00080BD00BF00100E40E112400080B500AFBC
:1013C00002480C21024B984780BD00BF00120E401E
:1013D000E112400080B500AF02481021024B98474F
:1013E00080BD00BF00140E40E112400080B500AF88
:1013F00002481121024B984780BD00BF00160E40E5
:10140000E112400080B483B000AF78607B68013B9C
:10141000032B1AD801A252F823F000BF2D1440006C
:10142000331440003B1440004314400000237B6011
:101430000EE04FF480737B600AE04FF440737B60F2
:1014400006E04FF400737B6002E000237B6000BF86
:101450000949094B1B6B23F440727B6813430B63F0
:1014600000BF054B9B6E03F00803002BF9D00C372F
:10147000BD465DF8047B704700060E4080B485B021
:1014800000AF78601D491D4B1B6B23F070027B6819
:1014900013430B634FF48053FB6007E0FB68002BA2
:1014A00001D1012323E0FB68013BFB60134B9B6EE2
:1014B00003F00803002BF1D0104A104B1B6B23F0F4
:1014C000030343F0020313634FF48053FB6007E010
:1014D000FB68002B01D1012309E0FB68013BFB60A5
:1014E000064B9B6E03F00803002BF1D00023184637
:1014F0001437BD465DF8047B704700BF00060E4000
:1015000080B483B000AF78607B68012B05D10749B8
:10151000064B9A68064B13438B60044B054A1A60CE
:101520000C37BD465DF8047B704700BF10180E40B5
:10153000000010A5080000A580B400AF094B5B694E
:1015400003F08003002B07D0074B9B6E03F0800352
:10155000002B01D0012300E000231846BD465DF8B2
:10156000047B704710180E4000060E4080B483B014
:1015700000AF78601549154B1A6A154B13430B627F
:1015800000BF124B9B6E03F40033002BF9D00F49C0
:101590000E4B1A6A0F4B13407A68134343F45C13E3
:1015A0000B6200BF094B9B6E03F40033002BF9D094
:1015B0000649064B1A6A084B134043F45C130B624E
:1015C0000C37BD465DF8047B704700BF00060E4037
:1015D000080037008FFFC8FFFFFFC8FE80B483B04C
:1015E00000AF786039607B68002B08D01349134B3B
:1015F0001B6A134A1A40134B13430B6218E00F493E
:101600000E4B1A6A104B13403A68120292B21A43F8
:101610000E4B13430B6200BF084B9B6E03F001039C
:10162000002BF9D00549054B1A6A094B13430B628D
:101630000C37BD465DF8047B704700BF00060E40C6
:10164000FCFFC8FE02003701FCFFC8FF01003700A5
:101650000000370180B400AF044B9B6E03F480336D
:101660001846BD465DF8047B704700BF00060E407B
:1016700080B400AF034B4FF000529A62BD465DF854
:10168000047B704700060E4080B400AF044B9B6E95
:1016900003F002031846BD465DF8047B704700BFA7
:1016A00000060E4080B400AF044B9B6E03F0400375
:1016B0001846BD465DF8047B704700BF00060E402B
:1016C00080B483B000AF78607B683F2B01D90123E1
:1016D0002FE07B681F2B13D8194B9A697B68012177
:1016E00001FA03F31A407B68012101FA03F39A42DD
:1016F0001ED0134A7B68012101FA03F3136117E03E
:101700007B68203B7B600E4BD3F808217B6801216E
:1017100001FA03F31A407B68012101FA03F39A42AC
:1017200006D0074A7B68012101FA03F3C2F80031B1
:10173000002318460C37BD465DF8047B704700BF98
:1017400000060E40B0B491B000AF786039601B4B1A
:1017500007F10C041D460FCD0FC40FCD0FC495E843
:10176000070084E807000023FB63FB6B9B0007F185
:101770004002134453F8343C3A68B2FBF3F27B68FE
:10178000B2FBF3F3BB63BB6BB3F5807F00D805E01E
:10179000FB6B0133FB63FB6B0A2BE6D9FB6B0A2B5C
:1017A00004D8FB6B1A02BB6B134301E04FF6FF73C7
:1017B00018464437BD46B0BC704700BFB8A14000D2
:1017C00080B584B000AF786039600023FB603B686F
:1017D0001B68002B11D03B681A683B689B68104659
:1017E0001946164B9847B860BB684FF6FF72934294
:1017F00001D1BB681EE0BB68FB603B685B68002BE7
:1018000014D03B685A683B689B68104619460B4BDE
:101810009847B860BB684FF6FF72934201D1BB682E
:1018200008E0BB681B04FA681343FB607B68FA6836
:101830001A60002318461037BD4680BD451740008A
:1018400080B487B000AF7860396000237B613B686B
:101850001B683B613B685B6803F00F033A68927A50
:10186000520213433A68928A13433A68927D1204F3
:1018700013433A68D27D520413433A68127E9204AD
:1018800013433A68128913437B617A683B691033CA
:101890005B0113447A691A603B68DA6879683B69CE
:1018A00010335B010B445A603B681A6979683B69E5
:1018B0005B010B4403F502735A603B689B7D002B70
:1018C0000DD03B689B8B1B041A463B685B8B1A430D
:1018D00079683B695B010B4403F506731A607B680A
:1018E0009A6C3B694FF0011101FA03F3DB4313409B
:1018F0007B613B689B7F1A463B699A403B68DB7F74
:1019000019463B6901FA03F31B0413431A467B692A
:1019100013437B617B687A699A647B685A6C3B6984
:101920004FF0011101FA03F3DB4313407B613B6885
:1019300093F820301A463B699A403B6893F821306F
:1019400019463B6901FA03F31B0413431A467B69EA
:1019500013437B617B687A695A643B69012202FA0E
:1019600003F3FB603B6893F82230002B06D07B68C2
:101970001A6AFB681A437B681A6206E07B681A6A77
:10198000FB68DB431A407B681A623B6893F824309B
:10199000022B0BD17B68D3F8C0303A69012101FAE0
:1019A00002F21A437B68C3F8C02024E07B68D3F8B6
:1019B000C0303A69012101FA02F2D2431A407B6831
:1019C000C3F8C0203B6893F82430012B09D17B6811
:1019D0009B6E3A69012101FA02F21A437B689A660A
:1019E00009E07B689B6E3A69012101FA02F2D24359
:1019F0001A407B689A663B6893F82530022B0CD11D
:101A00007B68D3F8C0303A69012101FA02F212046E
:101A10001A437B68C3F8C02027E07B68D3F8C03046
:101A20003A69012101FA02F21204D2431A407B689A
:101A3000C3F8C0203B6893F82530012B0AD17B689E
:101A40009B6E3A69012101FA02F212041A437B6883
:101A50009A660AE07B689B6E3A69012101FA02F2FC
:101A60001204D2431A407B689A660023BB603B692C
:101A7000DB003B617B68DB6EBB603B69FF2202FAE7
:101A800003F3DB431A46BB681340BB603B6893F823
:101A900023301A463B6902FA03F31A46BB68134324
:101AA000BB607B68BA68DA663B69002B15D13B687E
:101AB00093F82C30012B09D13B689B6A23F07F43BC
:101AC00043F080727B68C3F8A02006E03B689B6A05
:101AD00023F07F427B68C3F8A0207A683B6910330B
:101AE0005B0113441B6823F4002279683B691033BF
:101AF0005B010B441A607A683B6910335B01134445
:101B00001A683B689B6B03F400231A4379683B69AE
:101B100010335B010B441A60002318461C37BD4686
:101B20005DF8047B704700BF80B487B000AFF860F9
:101B3000B9607A60BB681B687B61BB681A697B68A7
:101B40009A4202D24FF6FF730BE0BB687A68DA6004
:101B5000FA687B695B01134403F502737A681A60C3
:101B6000002318461C37BD465DF8047B704700BF54
:101B700080B483B000AF786039603B68012202FA1C
:101B800003F31A467B685A600C37BD465DF8047B48
:101B9000704700BF80B483B000AF786039603B68A5
:101BA000012202FA03F31A467B689A600C37BD469D
:101BB0005DF8047B704700BF80B483B000AF7860ED
:101BC0007B68DB6918460C37BD465DF8047B7047BF
:101BD00080B485B000AFF860B9607A60BB6801225C
:101BE0009A407B681033194601238B4013431A46F1
:101BF000FB681A611437BD465DF8047B704700BF6F
:101C000080B485B000AFF860B9607A60BB6801222B
:101C10009A407B681033194601238B4013431A46C0
:101C2000FB685A611437BD465DF8047B704700BFFE
:101C300080B483B000AF78607B6808221A607B684C
:101C400020221A607B6804221A600C37BD465DF8BA
:101C5000047B704780B584B000AF786039600023A2
:101C6000FB607B684FF0FF329A627B681B6A786882
:101C70000B4B984778680B4B98473B685A683B6812
:101C80001B68786811461A46074B98470346012B94
:101C900001D10123FB60FB6818461037BD4680BDAB
:101CA0003D1F4000311C4000AD1C400080B487B097
:101CB00000AFF860B9607A6000237B61BB68164AA8
:101CC000934201D9012321E0BB685B007A68B2FB33
:101CD000F3F3043B3B6105E07B6901337B613B69C6
:101CE0005B083B613B69FF2B02D97B69062BF3D96B
:101CF0003B69DAB23B691B029BB21A437B691B0446
:101D000003F4E0231A43FB681A61002318461C37CA
:101D1000BD465DF8047B7047801A060080B485B02C
:101D200000AF786039603B68002B01D100231DE0D3
:101D30007B681B78FB603B68012B09DDFB681B029D
:101D4000FB607B6801331B781A46FB681343FB601A
:101D50003B68022B09DDFB681B02FB607B680233DA
:101D60001B781A46FB681343FB60FB681846143760
:101D7000BD465DF8047B704780B586B000AF7860E3
:101D800039603B68DB687B613B689B683B6143F67D
:101D90009823FB607B69002B01D1012359E07B680C
:101DA00000225A603B681B7C1B0403F4FE023B6864
:101DB0005B681B0203F44073134343F480527B6857
:101DC0005A607B680022DA603A683B685B681046BC
:101DD0001946224B984702467B68DA607B680122ED
:101DE0001A6029E07B681B6ABB60BB6803F48073E0
:101DF000002B01D005232CE0FB685A1EFA60002B53
:101E000001D1092325E07B69012B02D17B680222E5
:101E10001A60BB6803F00203002B00D10CE03B69A1
:101E20005A1C3A617A68126BD2B21A707B69013B14
:101E30007B6143F69823FB607B69002BD2D100BF06
:101E40007B681B6A03F00103002BF9D07B681B6AD7
:101E5000002318461837BD4680BD00BF1D1D400039
:101E600080B586B000AF786039603B68DB687B6125
:101E70003B689B683B617B69002B01D1012356E0E5
:101E80007B6800225A603B681B7C1B0403F4FE0243
:101E90003B685B681B0203F440731A437B685A601B
:101EA0007B680022DA603A683B685B681046194636
:101EB000214B984702467B68DA6019E07B681B6A11
:101EC000FB60FB6803F48073002B01D005232EE038
:101ED000FB6803F00403002B00D109E03B695A1CA6
:101EE0003A611B781A467B685A637B69013B7B61C8
:101EF0007B69002BE2D17B681B6AFB60FB6803F403
:101F00008073002B01D0052311E0FB6803F004036C
:101F1000002B04D000BF7B6802221A6000E0EAE7D1
:101F20007B681B6A03F00103002BF9D000231846DD
:101F30001837BD4680BD00BF1D1D400080B483B072
:101F400000AF78607B6880221A607B681B6B0C375F
:101F5000BD465DF8047B704780B485B000AF786003
:101F600039600023FB607B68AC221A603B681A680A
:101F70003B685B68B2FBF3F31B09FB60FB68002B5B
:101F800003D0FB68B3F5803F01D301230AE07B68EF
:101F9000FA681A623B689A687B685A607B685022CC
:101FA0001A60002318461437BD465DF8047B70475D
:101FB00080B483B000AF78600B46FB707B685B69D0
:101FC00003F00203002B01D1012303E0FA787B68C0
:101FD000DA61002318460C37BD465DF8047B704774
:101FE00080B483B000AF786039607B685B6903F0D0
:101FF0000103002B01D1012305E07B689B69DAB264
:102000003B681A70002318460C37BD465DF8047B08
:10201000704700BF80B489B000AFF860B9607A60E3
:10202000BB681A017B689A4202D81023FB6101E069
:102030000823FB617B68DA00FB69B96801FB03F3E5
:102040005B081A44FB69B96801FB03F3B2FBF3F3C5
:10205000BB61BB69DB087B61BB6903F007033B61C4
:102060007B69002B03D07B69B3F5803F01D301234B
:102070000FE0FB69082B05D1FB685B6843F4002285
:10208000FB685A603B691A047B691A43FB681A6251
:10209000002318462437BD465DF8047B704700BF17
:1020A00080B582B000AF786078680D4B98477B6848
:1020B00000225A607B6800225A627B6800229A6282
:1020C0007868084B98477868074B98477868074BBB
:1020D00098477868064B98470837BD4680BD00BFD3
:1020E0003523400091214000DD2140004522400081
:1020F0006122400080B584B000AFF860B9607A60BA
:10210000F8681A4B98471A4B00221A60BB68002BDC
:1021100009D0BB681B68F86819467A68154B984760
:102120000346002B01D001231BE0BB685A68BB6843
:102130009B681A43BB681B691A43BB68DB681A4378
:102140000B4B1B6813430A4A1360094B1B68084A70
:102150001360FB685A68064B1B681A43FB685A6099
:10216000002318461037BD4680BD00BFA1204000A7
:10217000900940201520400080B483B000AF786003
:102180007B6840221A600C37BD465DF8047B7047BF
:1021900080B483B000AF78607B6888221A600C3707
:1021A000BD465DF8047B704780B483B000AF7860B3
:1021B00039607B683A689A620C37BD465DF8047BEB
:1021C000704700BF80B483B000AF78607B68102296
:1021D0001A600C37BD465DF8047B704780B483B04D
:1021E00000AF78607B6824221A600C37BD465DF82A
:1021F000047B704780B483B000AF786039607B683F
:102200003A689A600C37BD465DF8047B704700BFA2
:1022100080B483B000AF786039607B683A68DA6078
:102220000C37BD465DF8047B704700BF80B483B0B7
:1022300000AF78607B685B6918460C37BD465DF877
:10224000047B704780B483B000AF78607B684FF444
:1022500080721A600C37BD465DF8047B704700BF82
:1022600080B483B000AF78607B684FF400221A60BE
:102270000C37BD465DF8047B704700BF80B483B067
:1022800000AF78607B685B6903F40073002B14BFB8
:1022900001230023DBB218460C37BD465DF8047BF2
:1022A000704700BF80B483B000AF78607B685B6923
:1022B00003F00103002B14BF01230023DBB21846F7
:1022C0000C37BD465DF8047B704700BF80B483B017
:1022D00000AF786039607B685B6903F00203002B14
:1022E00001D1012305E03B68C3F308027B68DA6192
:1022F000002318460C37BD465DF8047B704700BFCD
:1023000080B483B000AF786039607B685B6903F0AC
:102310000103002B01D1012306E07B689B69C3F315
:1023200008023B681A60002318460C37BD465DF86A
:10233000047B704780B483B000AF78607B68044A48
:10234000C3F8E4200C37BD465DF8047B704700BF3E
:102350000041535580B582B000AF164B7B60164BE1
:102360003B607A683B689A420CD007E03B681A1DD4
:102370003A607A68111D796012681A603B680F4AEA
:102380009342F3D30E4B3B6004E03B681A1D3A6066
:1023900000221A603B680B4A9342F6D30A4B7B60DB
:1023A0000A4A7B6823F07F039360094B9847094BE7
:1023B0009847FEE714A64000000040200409402092
:1023C00004094020F41240200000400000ED00E02D
:1023D000AD4940009D3D400080B400AFFEE700BF26
:1023E00080B400AF514B1B6B03F00303012B14D0DF
:1023F000012B02D3022B38D07BE04D4B5B6903F0FD
:102400008003002B04D04B4B4FF400421A6070E065
:10241000484B4FF4FA421A606BE0444B1B6A03F0DE
:102420008073002B03D0434B434A1A601CE0414B9E
:10243000424A1A603D4B1B6A03F07003102B04D014
:10244000202B08D0002B0ED00EE03A4B1B685B000F
:10245000384A136008E0374B1A6813465B00134490
:10246000344A136000E000BF43E0304B1B6A03F0C6
:102470008073002B03D02F4B2F4A1A601CE02D4B8A
:102480002E4A1A60294B1B6A03F07003102B04D0EC
:10249000202B08D0002B0ED00EE0264B1B685B00D3
:1024A000244A136008E0234B1A6813465B00134468
:1024B000204A136000E000BF1C4B1B6B03F00303BA
:1024C000022B15D1194B9A6A1D4B13401B0C01337B
:1024D000184A126802FB03F3164A1360134B9B6AF7
:1024E000DBB2144A1268B2FBF3F3124A1360FFE73F
:1024F00000BF0E4B1B6B03F07003702B08D10D4B0C
:102500001B68104AA2FB03235B080A4A136009E018
:10251000064B1B6B03F070031A09064B1B68D34074
:10252000044A1360BD465DF8047B704700060E4008
:1025300010180E4004004020001BB70000093D00A9
:102540000000FF07ABAAAAAA80B483B000AF7860EE
:102550007B68184A934204D8174B4FF080621A6088
:1025600023E07B68154A934203D8134B144A1A6040
:102570001BE07B68134A934203D80F4B124A1A6040
:1025800013E07B68114A934203D80B4B104A1A6040
:102590000BE07B680F4A934204D8074B4FF00422AC
:1025A0001A6002E0044B0C4A1A600C37BD465DF815
:1025B000047B7047FF2C3101000C0E40FF59620272
:1025C00000010004FF86930300020004FFB3C4046B
:1025D00000030004FFE0F5050005000480B485B0A9
:1025E00000AF7860104BFB60104B1B68002B02D1D2
:1025F0000E4B0F4A1A600D4B1B68BB60BA687B68B4
:102600001A44FB689A4202DD4FF0FF3306E0074BA5
:102610001A687B681344054A1360BB681846143770
:10262000BD465DF8047B7047FCFF452094094020BF
:10263000F834402080B483B000AF78604FF0FF33AF
:1026400018460C37BD465DF8047B704780B483B0F4
:1026500000AF786039603B684FF400525A60002345
:1026600018460C37BD465DF8047B704780B483B0D4
:1026700000AF7860012318460C37BD465DF8047B37
:10268000704700BF80B485B000AFF860B9607A6071
:10269000002318461437BD465DF8047B704700BF21
:1026A00080B588B000AF0346FB710B46BB71134683
:1026B0007B71BB793B777B797B77FB79002B02D1F0
:1026C00060233B7604E0FB79012B01D161233B764B
:1026D00000233B7200237B720023BB720023FB604C
:1026E00007F11C033B6102237B6100BF07F1080374
:1026F00005481946054B98470346002BF6D100BF05
:102700002037BD4680BD00BF00800140611E4000F3
:1027100080B588B000AF03460A46FB711346BB7113
:10272000FB79002B02D160233B7604E0FB79012B7F
:1027300001D161233B7600233B7200237B7200238F
:10274000BB720023FB60BB1D3B6101237B6100BFAB
:1027500007F108030F4819460F4B98470346002B13
:10276000F6D114200D4B98470023FB6007F11F039F
:102770003B6101237B6100BF07F10803054819464F
:10278000074B98470346002BF6D1FB7F18462037AE
:10279000BD4680BD00800140611E40002D384000D4
:1027A000791D4000B0B594B002AF3B1D40221846E1
:1027B0000021454B9847002000210022434B9847B9
:1027C000002001210022414B984700204321C822CC
:1027D0003E4B98470020022100223C4B98470020A6
:1027E00003210022394B9847002004210022374B57
:1027F0009847002005210022344B984700204421AF
:10280000334B9847034687F8473000204521304B2B
:102810009847034687F846300120002100222B4BC1
:102820009847012001210022284B9847012043218D
:10283000C822264B9847012002210022234B9847AB
:10284000012003210022214B98470120042100226E
:102850001E4B98470120052100221C4B9847012060
:1028600044211B4B9847034687F8453001204521FA
:10287000174B9847034687F8443097F84730DBB248
:102880001D4697F84630DBB21C4697F84530DBB260
:10289000194697F84430DBB21A463B1D009101926D
:1028A00018460C492A4623460B4CA0473B1D1846A8
:1028B0000A4B984702463B1D18461146084B98475D
:1028C0004837BD46B0BD00BFFD494000A1264000CD
:1028D00011274000E4A14000194C4000654C400025
:1028E0000D3A400080B48DB000AF78600B46FB70AD
:1028F0007B68FB62FB7887F82B30FB6A7B627B6A24
:102900003B623B6A5B09FB61FA69174B13445B024C
:10291000BB6197F82B30012B09D1FB6A7B617B6986
:1029200003F01F0301229A40BB691A610CE097F87B
:102930002B30002B08D1FB6A3B613B6903F01F037E
:1029400001229A40BB695A61FB6AFB60FB6803F095
:102950001F0301229A40BB69C3F8A0203437BD464B
:102960005DF8047B704700BF0707200080B48BB080
:1029700000AF78600B46FB707B687B62FB7887F862
:1029800023307B6AFB61FB69BB61BB695B097B61CF
:102990007A69104B13445B023B6197F82330002B9C
:1029A00009D07B6AFB60FB6803F01F0301229A4099
:1029B0003B691A6308E07B6ABB60BB6803F01F03D6
:1029C00001229A403B695A632C37BD465DF8047B6F
:1029D000704700BF0707200080B489B000AF78605F
:1029E0007B68FB61FB69BB61BB697B617B695B09E0
:1029F0003B613A690B4B13445B02DA6BFB69FB608A
:102A0000FB6803F01F03012101FA03F31340002BBD
:102A100014BF01230023DBB218462437BD465DF8FE
:102A2000047B70470707200080B485B000AF786052
:102A30000023FB6066E000BF00BF00BF00BF00BF17
:102A400000BF00BF00BF00BF00BF00BF00BF00BF8E
:102A500000BF00BF00BF00BF00BF00BF00BF00BF7E
:102A600000BF00BF00BF00BF00BF00BF00BF00BF6E
:102A700000BF00BF00BF00BF00BF00BF00BF00BF5E
:102A800000BF00BF00BF00BF00BF00BF00BF00BF4E
:102A900000BF00BF00BF00BF00BF00BF00BF00BF3E
:102AA00000BF00BF00BF00BF00BF00BF00BF00BF2E
:102AB00000BF00BF00BF00BF00BF00BF00BF00BF1E
:102AC00000BF00BF00BF00BF00BF00BF00BF00BF0E
:102AD00000BF00BF00BF00BF00BF00BF00BF00BFFE
:102AE00000BF00BF00BF00BF00BF00BF00BF00BFEE
:102AF00000BF00BF00BF00BF00BF00BF00BFFB683A
:102B00000133FB60FA687B689A4294D31437BD4660
:102B10005DF8047B704700BF80B483B000AF03460C
:102B2000FB71FB79042B17D801A252F823F000BFE8
:102B3000452B4000492B40004D2B4000512B4000BD
:102B4000552B40000F2308E0102306E0112304E07A
:102B5000122302E0132300E0002318460C37BD4681
:102B60005DF8047B704700BF80B584B000AF0346BA
:102B7000FB71FB791846084B98470346FB73FB7BB8
:102B800018460121054B9847FB7B18460021044B52
:102B900098471037BD4680BD192B4000E5284000FE
:102BA0006D29400080B584B000AF0346FB71FB790E
:102BB0001846064B98470346FB73FB7B18460021DB
:102BC000034B98471037BD4680BD00BF192B40000E
:102BD000E528400080B584B000AF0346FB71FB7967
:102BE0001846064B98470346FB73FB7B18460021AB
:102BF000034B98471037BD4680BD00BF192B4000DE
:102C0000E528400080B584B000AF0346FB71FB7936
:102C10001846074B98470346FB73FB7B1846054B4A
:102C200098470346BB73BB7B18461037BD4680BD33
:102C3000192B4000D929400080B483B000AF7860E0
:102C40007B68002B1ED0214B00221A60204B2022D3
:102C50001A60204B1E221A601F4B02221A601F4B63
:102C600002221A601E4B1B221A601E4B00221A60A1
:102C70001D4BF0221A601D4B23221A601C4BCD22E3
:102C80001A601DE0114B01221A60114B07221A60D5
:102C9000104B07221A60104B02221A600F4B0022C1
:102CA0001A600F4B07221A600E4B02221A600E4B5D
:102CB00046221A600D4B08221A600D4B28221A601A
:102CC0000C37BD465DF8047B704700BF980A402072
:102CD0009C0A4020A40A4020940A4020B00A4020C8
:102CE000B80A4020A80A4020AC0A4020B40A40207C
:102CF000A00A402080B584B000AF0346FB71174B9B
:102D00001B681846164B9847FB791846154B984791
:102D1000154B1B681846124B9847FB791846134B06
:102D20009847FB791846124B9847124B1B68184678
:102D30000B4B9847FB7918460F4B98470346FB60AF
:102D4000FB7918460A4B98470C4B1B681846044BF6
:102D50009847FB6818461037BD4680BD980A40204A
:102D6000292A4000692B4000AC0A4020A52B4000D6
:102D7000D52B4000B40A4020052C4000A00A40207A
:102D800080B584B000AF0346FB71FB7918460D4B4C
:102D900098470346FB73FB7B184601210A4B984773
:102DA000FB7B18460021094B9847094B1B681846C6
:102DB000084B9847FB7B18460021034B9847103778
:102DC000BD4680BD192B4000E52840006D2940001C
:102DD000980A4020292A400080B582B000AF0346FF
:102DE0003960FB713B68002B09D0FB7918460E4B0C
:102DF00098470E4B1B6818460D4B984711E0FB791E
:102E000018460C4B98470C4B1B681846084B9847C4
:102E1000FB791846094B9847094B1B681846044B29
:102E200098470837BD4680BD812D40009C0A402050
:102E3000292A4000692B4000A40A4020A52B40000D
:102E4000940A402080B584B000AF0346FB71FB7943
:102E500018460B4B98470B4B1B6818460A4B984774
:102E6000FB791846094B98470346FB60084B1B68E3
:102E70001846054B9847FB6818461037BD4680BD7D
:102E8000812D4000B00A4020292A4000052C400036
:102E9000B80A402080B584B000AF03463960FB71AA
:102EA0000023FB600DE03B6803F00103FA79104654
:102EB0001946074B98473B685B103B60FB68013342
:102EC000FB60FB68072BEEDD1037BD4680BD00BF01
:102ED000D92D400080B584B000AF0346FB710023BC
:102EE000BB600023FB6010E0BB685B10BB60FB793C
:102EF00018460A4B98470346002B03D0BB6843F0A3
:102F00008003BB60FB680133FB60FB68072BEBDDD4
:102F1000BB6818461037BD4680BD00BF452E400037
:102F200080B485B000AF03460A46FB711346BB71FF
:102F3000FA79BB795340FB710023FB6012E0FB7907
:102F400003F00103002B07D0FB795B08DAB26FF0C6
:102F500073035340FB7102E0FB795B08FB71FB6874
:102F60000133FB60FB68072BE9DDFB79184614375A
:102F7000BD465DF8047B704780B483B000AF034664
:102F8000FB71084997F907305B09FA7902F01F02D3
:102F9000012000FA02F241F823200C37BD465DF80B
:102FA000047B704700E100E080B483B000AF0346CB
:102FB000FB71094997F907305B09FA7902F01F02A2
:102FC000012000FA02F2203341F823200C37BD46DD
:102FD0005DF8047B704700BF00E100E080B483B07F
:102FE00000AF0346FB71094997F907305B09FA798D
:102FF00002F01F02012000FA02F2603341F82320A0
:103000000C37BD465DF8047B704700BF00E100E06F
:1030100080B483B000AF03463960FB7197F9073085
:10302000002B0BDA0D49FB7903F00F03043B3A68E0
:10303000D2B25201D2B20B441A7609E0084997F98C
:1030400007303A68D2B25201D2B20B4483F800235F
:103050000C37BD465DF8047B704700BF00ED00E013
:1030600000E100E080B582B000AF78607B68013B92
:10307000B3F1807F01D301230FE00A4A7B68013B53
:1030800053604FF0FF300721074B9847054B002254
:103090009A60044B07221A60002318460837BD4681
:1030A00080BD00BF10E000E01130400080B483B06C
:1030B00000AF78600B467B800C37BD465DF8047B23
:1030C000704700BF80B485B000AF78600B46FB70DE
:1030D0007B685B68FB60FB78FF2B04D1FB6843F0E7
:1030E0008003FB6007E0FB6823F08F03FB60FB7845
:1030F000FA681343FB607B68FA685A601437BD4670
:103100005DF8047B704700BF80B483B000AF786087
:103110007B6802221A600C37BD465DF8047B70475D
:1031200080B582B000AF78600B467B807B8840F62C
:10313000FF72934204D07B8878681946094B984700
:103140007B8840F6FF72934205D07B88012202FA09
:1031500003F31A4601E040F6FF727B685A610837B4
:10316000BD4680BDAD30400080B582B000AF786014
:103170000B467B807B8840F6FF72934204D07B88AD
:1031800078681946094B98477B8840F6FF7293424E
:1031900005D07B88012202FA03F31A4601E040F6CB
:1031A000FF727B689A610837BD4680BDAD30400034
:1031B00080B483B000AF78607B681B6A9BB218460E
:1031C0000C37BD465DF8047B704700BF80B483B008
:1031D00000AF78607B68072B25D801A252F823F056
:1031E00001324000073240000D32400013324000EF
:1031F000173240001B3240001F3240002332400093
:103200004FF4FA4310E04FF400430DE04FF4004355
:103210000AE0084B08E0084B06E0084B04E0084BC6
:1032200002E0064B00E0002318460C37BD465DF86F
:10323000047B704700093D0000127A00001BB700B4
:103240000024F40080B500AF0620054B98470246E5
:1032500013469B0013449A0013449B08184680BDF4
:10326000CD31400080B500AF024B98470346184669
:1032700080BD00BF4532400080B500AF024B98478B
:103280000346184680BD00BF4532400080B582B07D
:1032900000AF78607868024B98470837BD4680BD1C
:1032A000C116400080B48DB000AF78600B46FB7053
:1032B0007B68FB62FB7887F82B30FB6A7B627B6A5A
:1032C0003B623B6A5B09FB61FA69174B13445B0283
:1032D000BB6197F82B30012B09D1FB6A7B617B69BD
:1032E00003F01F0301229A40BB691A610CE097F8B2
:1032F0002B30002B08D1FB6A3B613B6903F01F03B5
:1033000001229A40BB695A61FB6AFB60FB6803F0CB
:103310001F0301229A40BB69C3F8A0203437BD4681
:103320005DF8047B704700BF0707200080B48BB0B6
:1033300000AF78600B46FB707B687B62FB7887F898
:1033400023307B6AFB61FB69BB61BB695B097B6105
:103350007A69104B13445B023B6197F82330002BD2
:1033600009D07B6AFB60FB6803F01F0301229A40CF
:103370003B691A6308E07B6ABB60BB6803F01F030C
:1033800001229A403B695A632C37BD465DF8047BA5
:10339000704700BF0707200080B489B000AF786095
:1033A0007B68FB61FB69BB61BB697B617B695B0916
:1033B0003B613A690B4B13445B02DA6BFB69FB60C0
:1033C000FB6803F01F03012101FA03F31340002BF4
:1033D00014BF01230023DBB218462437BD465DF835
:1033E000047B70470707200080B48BB000AF786083
:1033F0007B687B627B6A3B623B6AFB61FB695B09C2
:10340000BB61BA69124B13445B027B617B6A3B610F
:103410003B6903F01F03012202FA03F3FB607B699F
:10342000DA6B7B6ABB60BB6803F01F03012101FA02
:1034300003F31340002B03D07B69FA685A6302E060
:103440007B69FA681A632C37BD465DF8047B7047C8
:103450000707200080B58CB000AF78603960484B1A
:10346000984703467B623B681B68BB623B689B686E
:10347000FB623B681B68FB603B685B683B613B68C9
:103480009B687B613B68DB68BB610023FB617B68F9
:103490003C4A934208D107203B4B984707F124034D
:1034A00078681946394B98477B68394A934208D166
:1034B0000820354B984707F1240378681946334BA9
:1034C00098477B68334A934208D12C202E4B98476B
:1034D00007F12403786819462C4B98477B682E4ADD
:1034E000934208D12D20284B984707F12403786890
:1034F0001946264B98477B68284A934211D10D20E4
:10350000214B98471E4B9847024607F10C037868F9
:103510001946234B98477868224B98477868224B86
:1035200098477B68214A934211D10E20164B984749
:10353000134B9847024607F10C0378681946184B5D
:1035400098477868174B98477868174B98477B6877
:10355000174A934211D10F200B4B9847084B9847BD
:10356000024607F10C03786819460D4B98477868B6
:103570000C4B984778680C4B98473037BD4680BD58
:103580007932400000080E408D324000591F400043
:10359000000A0E40001A0E40001C0E40004002407F
:1035A000F520400079214000C52140000080024004
:1035B00000C0024080B582B000AF78600B46FB705F
:1035C0007B68364A93420AD100BFFB787868194677
:1035D000334B98470346002BF7D101235AE07B6811
:1035E000304A93420AD100BFFB78786819462C4BC9
:1035F00098470346002BF7D101234BE07B682A4A0A
:1036000093420AD100BFFB7878681946244B98474B
:103610000346002BF7D101233CE07B68234A934209
:103620000AD100BFFB78786819461D4B98470346BE
:10363000002BF7D101232DE07B681D4A93420AD16C
:1036400000BFFB78786819461A4B98470346002B51
:10365000F7D101231EE07B68174A93420AD100BFCD
:10366000FB7878681946134B98470346002BF7D12F
:1036700001230FE07B68114A93420AD100BFFB7817
:10368000786819460B4B98470346002BF7D1012366
:1036900000E0002318460837BD4680BD00080E40F4
:1036A000B11F4000000A0E40001A0E40001C0E40E0
:1036B00000400240CD2240000080024000C0024095
:1036C00080B584B000AF786039600023FB607B6810
:1036D000334A934207D100BF78683968314B984725
:1036E0000346002BF8D17B682F4A934207D100BFD5
:1036F000786839682B4B98470346002BF8D17B68D4
:103700002A4A934207D100BF78683968254B984709
:103710000346002BF8D17B68254A934207D100BFAE
:10372000786839681F4B98470346002BF8D17B68AF
:10373000204A93420DD100BF07F10C037868194667
:103740001D4B98470346002BF6D1FB68DAB23B6865
:103750001A707B68194A93420DD100BF07F10C0320
:1037600078681946144B98470346002BF6D1FB683E
:10377000DAB23B681A707B68114A93420DD100BFE0
:1037800007F10C03786819460B4B98470346002B4A
:10379000F6D1FB68DAB23B681A701037BD4680BDBF
:1037A00000080E40E11F4000000A0E40001A0E40C3
:1037B000001C0E40004002400123400000800240F7
:1037C00000C0024080B582B000AF786039600F4A17
:1037D0007B6813600E4B0F4A1A600F4B0F4A1A603A
:1037E000786839680E4B98470E4B1B689B681846E3
:1037F00000210D4B98470B4B1B685B681846002156
:10380000094B98470837BD4680BD00BF100A4020CD
:103810000C0A4020B5354000080A4020C13640005F
:1038200055344000B80440200D4B400080B485B0B2
:1038300000AF7860074B1B68FB6000BF054B1A6840
:10384000FB68D21A7B689A42F8D31437BD465DF8FC
:10385000047B7047A009402080B400AF064B1B6872
:103860000133054A1360054B1B680133034A13609B
:10387000BD465DF8047B7047FC0A4020A00940204B
:1038800080B582B000AF1B481B4B984778607A68C0
:1038900040F202231340002B04D0164840F20221CC
:1038A000164B9847164B1B78DBB2022B1FD1FB1C23
:1038B00010481946134B98470346002B17D1124B5B
:1038C0001B685A1C10490A60FA781A700F4B1B6863
:1038D00001330E4A13600D4B1B68B3F5FA6F06D324
:1038E000074B03221A7003480121044B98470837FD
:1038F000BD4680BD004002402D2240001122400004
:103900009809402001234000080040209C094020E5
:10391000B0B586B000AF144B3C461D460FCD0FC46A
:1039200095E8030084E803000D20104B9847104BE6
:10393000984702463B460F4819460F4B98470D489B
:1039400004210E4B98470B484FF0FF310C4B984722
:1039500008480C4B984707480B4B98470D200B4BDA
:1039600098471837BD46B0BD14A240008D324000C4
:103970006532400000400240F5204000A92140008F
:103980001122400079214000C5214000792F4000DC
:1039900080B582B000AF0A4B98470246094BA3FBA3
:1039A00002239B091846084B984778607B68002BD8
:1039B00003D00648064B9847FEE70837BD4680BD52
:1039C00065324000D34D6210653040002CA24000AB
:1039D000FD4A400090B585B000AF084B3C460FCB88
:1039E00084E80F000720064B98473B4605481946D8
:1039F000054B98471437BD4690BD00BF50A240000C
:103A00008D32400000080E40C537400080B582B0BE
:103A100000AF7860396013E07B681B781048194666
:103A2000104B98470346002B0AD10D4840F2022163
:103A30000D4B98473B68013B3B607B6801337B60E3
:103A40003B68002BE8D100BF0548084B9847034668
:103A5000002BF9D0002318460837BD4680BD00BFB3
:103A600000400240CD224000F52140007D22400070
:103A700080B584B000AF1320094B9847094B984795
:103A800003467B60084BBB603B1D08481946084B4A
:103A900098470346002B00D0FEE71037BD4680BD97
:103AA000C116400065324000801A060000800140C7
:103AB000551C400080B500AF0448054B98470246AE
:103AC000044B1A60044B01221A7080BD00C00340F1
:103AD000B1314000EC124020A409402080B500AF75
:103AE0000448054B98470246044B1A60044B0122D8
:103AF0001A7080BD00400640B1314000BC0A402031
:103B0000A409402090B589B000AF2748274B9847BB
:103B10002748264B984707F108031846254B984736
:103B20000023BB6007F108031F481946224B984742
:103B300007F108031E4819461F4B98473B1D1846BE
:103B40001E4B984703237B713B1D194809211A46D8
:103B50001B4B98473B1D144804211A46184B9847A5
:103B60003B1D134804211A46154B98473B1D10482E
:103B700005211A46124B98470B480021114B9847D4
:103B80000B4800210F4B984707480C210E4A012390
:103B90000E4CA04706480C210D4A01230B4CA047B0
:103BA0002437BD4690BD00BF00C0034081124000D5
:103BB000004006407D0F4000FD0F4000DD0F40003B
:103BC000ED0E4000C5304000B53A40007510400091
:103BD000DD3A400080B582B000AF1E481E4B9847CA
:103BE00078607B6803F00103002B30D01B4B1B680F
:103BF00001331A4A1360194B1B68282B27D1184B25
:103C00001B78002B0CD0174B1B680133154A13602F
:103C1000144B1B68642B0FD1114B00221A700BE060
:103C2000104B1B68013B0F4A13600E4B1B68322B75
:103C300002D10B4B01221A70084B00221A600A4B6A
:103C400000221A60034808493222084B9847083777
:103C5000BD4680BD00000240B91B4000C80940209D
:103C60008400402088004020C00A4020291B4000DA
:103C700080B584B000AF1F20304B984730480021FA
:103C8000304B98472E4801212E4B98472E4B7B6096
:103C90000023BB602D4B98470346FB603B1D284823
:103CA00019462B4B98472B4B00221A81294B002297
:103CB0009A72284B0B225A60264B64221A61254BBC
:103CC0003222DA60234B00221A601D482149224B20
:103CD00098471B4800210022204B98471D4B4FF46A
:103CE00080721A811B4B01229A721A4B0B225A6066
:103CF000184B64221A61174B3222DA60154B0122ED
:103D00001A600F481349144B98470D4801210022AF
:103D1000134B98471F20134B98471F20124B98476F
:103D20001F200021114B98471F20114B9847044832
:103D30000021104B98471037BD4680BDC11640008A
:103D400000000240951B4000400D0300653240001A
:103D5000C1174000C00A402041184000D11B40005C
:103D6000011C4000A92F4000DD2F40001130400011
:103D7000792F4000711B400080B483B000AF7860A1
:103D80007B681B780133DBB203F00103DAB27B6896
:103D90001A700C37BD465DF8047B7047F0B5A3B0D0
:103DA00006AF002387F84C30002387F84D300023FE
:103DB00087F84E30002387F84F30002387F85030C3
:103DC000002387F85130002387F85230002387F80A
:103DD0005330002387F85430002387F855300023F0
:103DE00087F856300023FB65002387F86B300023EB
:103DF00087F86A30874B01221A70864B01225A706D
:103E0000844B00229A70834B0122DA70814B00228E
:103E10001A71814B00221A707F4B00225A707E4B20
:103E200000229A707C4B0022DA707B4B00229A7140
:103E3000794B00225A71784B00221A71764B00227E
:103E40005A72754B00221A72734B0022DA71724B50
:103E500000221A73704B0022DA726F4B00229A72A2
:103E60006D4B0022DA736C4B00229A736A4B00226E
:103E70005A736A4B98476A4B98476A4B98476A4B04
:103E800098476A4B98476A4B98470F200121694B26
:103E900098470F200121684B984710200121654B5E
:103EA000984710200121644B984711200121614B54
:103EB000984711200121604B9847122001215D4B4A
:103EC0009847122001215C4B984713200121594B40
:103ED000984713200121584B98470120574B98478A
:103EE00000237B6680E07B6EDBB21846544B98471C
:103EF0000346002B71D17B6EDBB218463321514B48
:103F000098477B6EDBB218464F4B9847034687F8BD
:103F10005B3097F85B30002019464C4B98470346BE
:103F200087F8693000233B661BE07B6EDBB21846E6
:103F3000454B98470346D9B23A463B6E13440A466E
:103F40001A703A463B6E13441B7897F86920104666
:103F500019463E4B9847034687F869303B6E01335C
:103F60003B663B6E052BE0DD7B6EDBB21846364BC5
:103F70009847034687F85A3097F8692097F85A30DF
:103F80009A4204D032481D21324B984729E03B78B1
:103F90001E467B781D46BB781C46FB7818463B794D
:103FA00019467B791A4607F108030095019402909F
:103FB00003910492184628497A6E3346274CA0474D
:103FC00007F108031846264B9847024607F10803F5
:103FD000184611461F4B984703E0224814211D4BF9
:103FE00098477B6E01337B667B6E042B7FF77BAF3C
:103FF0001D4B98471D4B98471D4B98471D481E4B1E
:1040000098471C481D4B984750201D4B984700234C
:10401000FB66CDE2000B4020DC1240209104400002
:104020006D0A4000D53940001139400091394000F7
:10403000713C4000A53240002D334000392C400037
:10404000F52C4000952E4000D52E4000212F400039
:1040500064A240000D3A400084A24000194C400088
:10406000654C4000ACA24000713A4000A5274000DA
:10407000053B40000040024079214000C52140003E
:10408000E93340006420B34B98474D20B24B98472A
:1040900003461A46B14B1A704E20AF4B9847034661
:1040A0001A46AE4B5A70AD4B1A78AC4B9B789A427D
:1040B00005D1AA4B5A78A94BDB789A4220D0A74B5E
:1040C0001B781A46A54B5B781C4607F10803184677
:1040D000A3492346A34CA04707F108031846A24B67
:1040E0009847024607F10803184611469F4B984728
:1040F0009A4B1A78994B9A70984B5A78974BDA707A
:104100005120954B984703461A46944B1A715220FA
:10411000914B984703461A46904B5A7153208E4B49
:10412000984703461A468D4B9A7154208A4B9847FC
:1041300003461A46894BDA715520874B9847034648
:104140001A46864B1A725620834B984703461A46E6
:10415000824B5A72814B1A79804B9B7A9A421DD1BD
:104160007E4B5A797D4BDB7A9A4217D17B4B9A79F9
:104170007A4B1B7B9A4211D1784BDA79774B5B7B78
:104180009A420BD1754B1A7A744B9B7B9A4205D19C
:10419000724B5A7A714BDB7B9A4241D06F4BDB7981
:1041A0001E466E4B1B7A1D466C4B5B7A1C466B4B56
:1041B0001B791846694B5B791946684B9B791A46FF
:1041C00007F1080300940190029103921846684990
:1041D00032462B46634CA04707F108031846624B52
:1041E0009847024607F10803184611465F4B984767
:1041F0005A4B9A79594B1A73584B5A79574BDA7272
:10420000564B1A79554B9A72544B5A7A534BDA7370
:10421000524B1A7A514B9A73504BDA794F4B5A736F
:104220005448554B98470346002B00F0BE8107F1D8
:104230004B0350481946514B984707F14B0318461A
:1042400001214A4B984797F84B30423B312B00F203
:10425000AC8101A252F823F0FD434000AB45400081
:10426000AB454000AB454000AB454000AB4540008E
:1042700081444000AB454000AB454000AB454000A9
:104280008D434000C5434000AB454000AB45400076
:1042900021434000AB454000AB454000494440004D
:1042A000AB454000AB454000AB454000AB4540004E
:1042B000AB454000AB454000AB454000AB4540003E
:1042C000AB454000AB454000AB454000AB4540002E
:1042D000AB454000AB454000FD434000AB454000CE
:1042E000AB454000AB454000AB454000AB4540000E
:1042F00081444000AB454000AB454000AB45400029
:104300008D434000C5434000AB454000AB454000F5
:1043100021434000AB454000AB45400049444000CC
:104320001748184B9847164B1B781A4607F1080395
:10433000184615490B4B984707F1080318460A4BD6
:104340009847024607F1080318461146074B98475D
:104350002BE100BF2D38400099334000DC12402093
:10436000C4A24000194C4000654C40000D3A40008A
:10437000E0A2400000400240A5224000012340008E
:10438000000B4020793D400000A34000A648A74B09
:104390009847A74B5B781A4607F108031846A549CA
:1043A000A54B984707F108031846A44B98470246C7
:1043B00007F1080318461146A14B98470120A14B6D
:1043C0009847F2E0A048994B9847994B9B781A463A
:1043D00007F1080318469D49974B984707F10803D2
:1043E0001846964B9847024607F1080318461146AF
:1043F000934B98470020934B9847D6E094488B4BBB
:1044000098478B4BDB781A4607F108031846914909
:10441000894B984707F108031846884B984702468E
:1044200007F1080318461146854B9847804BDB7807
:10443000002B04D088480021884B9847B5E0864877
:104440000021874B9847B0E08648784B9847784BD7
:104450001B791A4607F1080318468349764B98479B
:1044600007F108031846754B9847024607F1080301
:1044700018461146724B98471520724B984794E0A6
:1044800007F10803794A07CA83E8070007F1080320
:1044900018466A4B9847024607F10803184611462A
:1044A000674B984707F10803714A1C4615460FCD24
:1044B0000FC495E8070003C4227007F108031846EB
:1044C0005E4B9847024607F10803184611465C4BBD
:1044D000984707F10803674A1C4615460FCD0FC4DD
:1044E0002B68236007F108031846544B984702468F
:1044F00007F1080318461146514B984707F1080386
:104500005D4A1C4615460FCD0FC42B68237007F17A
:1045100008031846494B9847024607F10803184616
:104520001146474B984707F10803544A1C46154665
:104530000FCD0FC42B68236007F1080318463F4BCB
:104540009847024607F10803184611463C4B984726
:1045500007F108034A4A1C4615460FCD0FC495E8DB
:10456000030020600434218007F108031846334B10
:104570009847024607F1080318461146304B984702
:1045800007F108033F4A1C4613460FCB84E80F008F
:1045900007F108031846294B9847024607F108031C
:1045A00018461146264B984700BFFB6E0133FB6649
:1045B000FB6E452B7FF666AD002387F86A3091E0ED
:1045C00097F86B30304A52F8232097F86A3013443A
:1045D0001B7887F859302D4B1B689B689A68013A05
:1045E0009A609B68002B6BDA284B1B689B689A6863
:1045F000264B1B689B689B699A4254DB234B1B68C4
:104600009B681B6897F859201A70204B1B689B68A1
:104610001B681B780A2B3BD01C4B1B689B681A68D5
:1046200001321A6059E000BF010B4020793D400083
:10463000000B402014A34000194C4000654C400082
:104640000D3A4000E9334000020B402024A3400013
:10465000030B402030A3400000000240711B4000CB
:10466000951B4000040B402040A3400050A3400095
:104670005CA3400078A340008CA34000A0A34000AE
:10468000B4A34000CCA340005C004020B80440200C
:10469000434B1A68424B1B689B6810460A211A4616
:1046A000404B984719E03E4B196897F859203C4B0E
:1046B0001B689B68084611461A463A4B98470CE01F
:1046C000374B1B689B681B6897F859201A70344B4E
:1046D0001B689B681A6801321A6097F86A300133C8
:1046E00087F86A3097F86A30062B7FF669AF97F83B
:1046F0006B30082B6FD801A252F823F021474000FD
:104700003147400041474000554740006547400061
:10471000754740008347400091474000C94740002B
:1047200007F14C03204A92E8030083E8030052E0BB
:1047300007F14C031D4A92E8030083E803004AE0B6
:104740001B4A07F14C0307CA03C31A800233120C39
:104750001A7040E007F14C03164A92E8030083E820
:10476000030038E007F14C03134A92E8030083E8A2
:10477000030030E007F14C03104A07CA03C31A7064
:1047800029E007F14C030E4A07CA03C31A7022E05E
:1047900007F14C030B4A07CA03C31A701BE000BFA2
:1047A000B8044020D1614000DCA34000E4A34000F5
:1047B00050A44000ECA34000F4A34000FCA3400040
:1047C00008A4400014A4400007F14C03684A07CA3B
:1047D00003C31A7000BF07F14C031846654B984796
:1047E000024607F14C0318461146634B984797F869
:1047F0006B30013387F86B3097F86B30082B02D998
:10480000002387F86B305D4809215D4B98475B4872
:104810005C4B98475C4B00221A7000BF5A4B1B78C8
:10482000DBB283F00103DBB2002BF7D1574B1B68DF
:10483000574A136051480921564B9847564804215E
:104840004F4B984754484F4B98474F4B00221A7094
:1048500000BF4D4B1B78DBB283F00103DBB2002BB2
:10486000F7D14E4B1B684A4A53604B480421494BD1
:10487000984742480421424B98474048414B98474B
:10488000414B00221A7000BF3F4B1B78DBB283F014
:104890000103DBB2002BF7D13C4B1B683C4A936011
:1048A000364804213B4B984734480521344B984700
:1048B0003248344B9847344B00221A7000BF324BB9
:1048C0001B78DBB283F00103DBB2002BF7D12F4B57
:1048D0001B682F4AD360294805212E4B98472C4B43
:1048E0001A682F4B1B689A4211D1294B5A682C4BDE
:1048F0005B689A420BD1264B9A68294B9B689A4277
:1049000005D1234BDA68264BDB689A422DD0204B29
:104910001D681F4B5C681E4B9A681D4BDB6807F1D6
:1049200008010092019308461E492A4623461E4C60
:10493000A04707F1080318460E4B9847024607F1B7
:104940000803184611460C4B9847114B1B68144A34
:1049500013600F4B5B68124A53600D4B9B68104A03
:1049600093600B4BDB680E4AD360FFF74DBB00BF73
:1049700020A44000654C40000D3A40000040064035
:104980002131400009314000A4094020BC0A4020E8
:10499000A80940206931400000C00340EC124020CB
:1049A000B80940202CA44000194C400070B50F4EAF
:1049B0000F4D761BB61018BF002405D0013455F8F2
:1049C000043B9847A642F9D10A4E05F00DFE0A4D68
:1049D000761BB61018BF002406D0013455F8043BEE
:1049E0009847A642F9D170BD70BD00BFF4A5400044
:1049F000F4A54000FCA54000F4A54000830770B476
:104A000049D0541E002A44D0CDB2034602E0002C07
:104A10003FD0144603F8015B13F0030F04F1FF329B
:104A2000F5D1032C2ED9CDB20F2C45EA052545EA48
:104A3000054519D903F110022646103E42F8105CD4
:104A400042F80C5C10320F2E42F8185C42F8145CED
:104A5000F3D8A4F1100204F00F0422F00F02032C8B
:104A600002F1100213440DD91E462246043A46F8BC
:104A7000045B032AFAD8221F04F0030422F0030285
:104A8000043213442CB1C9B21C4403F8011BA342E5
:104A9000FBD170BC704714460346C2E7F0B504462C
:104AA00089B008460D4600F0DDF8A3680127022111
:104AB0009A8904AE00EB070CDFF83CE00291910408
:104AC00004950590CDF80CC0CDF818E00797019635
:104AD00006D4596E42F4005221F400519A8159666D
:104AE0002046194601AA02F0D3FE002814BF4FF059
:104AF000FF300A2009B0F0BD64A44000024B01461B
:104B00001868FFF7CBBF00BFB804402000294FF45E
:104B100080630CBF0222002200F000B82DE9F843A8
:104B20003B4E04460D46904637681E4617B1BB6B98
:104B3000002B3FD0B8F1020F32D85FEAD6792FD1DF
:104B40002146384602F0C4FCA189C4F804900B0643
:104B5000C4F8189028D421F08301B8F1020F89B26B
:104B6000A1812BD0002D37D0B8F1010F12D089B21E
:104B7000284B01F00800FB63256080B22561666167
:104B800080B111F0030F4FF0000018BF0646A66079
:104B9000BDE8F88341F001017342A181A361E6E71A
:104BA0004FF0FF30BDE8F8832169384602F098FDE8
:104BB000A189D0E7384602F025FDBBE7002004F1CB
:104BC000430341F0020100250122A181A560236079
:104BD00023616261BDE8F883002E08BF4FF4806650
:104BE000304603F085F8054628B1A18941F08001DF
:104BF00089B2A181B8E74FF4806003F079F80546E7
:104C000018B9A1894FF0FF30D9E74FF48066ECE77F
:104C1000B8044020FD7440000EB4F0B59CB0104BB9
:104C200006464FF4027E21AC6FF000454FF6FF7749
:104C3000186854F8042B02A902962346069601949C
:104C4000ADF814E004950795ADF8167000F038F84B
:104C5000029B00221A701CB0BDE8F04003B0704700
:104C6000B804402020F0030110F00300C0F1000060
:104C700051F8043B00F1040C4FEACC0C6FF0000239
:104C80001CBF22FA0CF213434FF0010C4CEA0C2C1F
:104C90004CEA0C4CA3EB0C0222EA030212EACC12FF
:104CA00004BF51F8043B0430F4D0C2F1000102EA21
:104CB0000102B2FA82F2C2F11F0200EBD200704789
:104CC0002DE9F04FC1B0894608920C93099002F08B
:104CD00099FF036818461693FFF7C4FFB9F80C3024
:104CE00017901D0604D5D9F81030002B01F08080F4
:104CF0000DF1C0080023C346139314931293159328
:104D000019930A9325932493CDF88C80089A1378ED
:104D1000252B00F0A6800BB9A3E01BB112F8013FD0
:104D2000252BFAD108991446551A10D0249B259AA0
:104D30000133CBF800102A44CBF80450072B2493FE
:104D4000259273DC0BF1080B0A9B2B440A93237802
:104D5000002B73D000234FF0FF3C611C66781A468D
:104D600064468DF86F300B9306934B1CA6F120011F
:104D7000582900F2B283DFE811F01903B003B00341
:104D80002003B003B003B003B003B003B00340028C
:104D9000FB01B003E201FF01B00327032E032E0342
:104DA0002E032E032E032E032E032E032E03B003F9
:104DB000B003B003B003B003B003B003B003B0035B
:104DC000B0033D036503B0036503B003B003B00354
:104DD000B003FE02B003B0039302B003B003B0030C
:104DE000B003B003B002B003B003C602B003B00317
:104DF000B003B003B003B003B003B003B003B0031B
:104E0000EB0218026503650365034E021802B00346
:104E1000B0033602B0036002E90199035902B003FE
:104E20007202B0037600B003B00305030998494647
:104E300023AA04F0D5F840B9C34685E7259B23B1E2
:104E40000998494623AA04F0CBF8B9F80C3013F0BE
:104E5000400F0A9B18BF4FF0FF33184641B0BDE822
:104E6000F08F089C73E70893A446069B980640F1D0
:104E70003E820C9F0123073727F0070202F1080149
:104E8000D2E900450C910022CDF840C017468DF8BC
:104E90006F20BCF1000F03DB069A22F0800206921D
:104EA000BCF1000F40F0AC8354EA050214BF0122AC
:104EB0000022002A40F0A483002B40F06084069A70
:104EC000D20740F1FD840DF5807A30230AF8413D88
:104ED000CAEB0804CDF83CA0A4456346B8BF2346FE
:104EE00007930023119317B1079B01330793069B88
:104EF00013F002030D9302D0079B02330793069B26
:104F000013F084030E9340F007830B9B079AC2EBC8
:104F1000030ABAF1000F40F3FF82BAF1100F25998E
:104F200040F3DD87BF4F10251896249A3E4627464A
:104F3000099C04E0AAF1100ABAF1100F1BDD01323E
:104F40001031CBF800600BF1080B072A4BF8045C1A
:104F500025912492EEDD2046494623AAC34604F05B
:104F60003FF800287FF471AFAAF1100A2599249A1E
:104F7000BAF1100FE3DC3C463746189E01320AEBCB
:104F8000010CCBF80070072ACDF894C02492CBF81E
:104F900004A000F3B6820BF1080B9DF86F7097B177
:104FA000249B01220CF1010C0DF16F011344CBF88D
:104FB0000420CDF894C0072BCBF80010249300F305
:104FC000FB830BF1080B0D9B8BB1249B0CF1020CA6
:104FD0001CA902220133CDF894C0CBF80010072B96
:104FE0002493CBF8042000F3DB830BF1080B0E9B1A
:104FF000802B00F02183109B1F1B002F37DD102F0B
:10500000249B40F3EC850D944FF0100A864D6246C8
:10501000099C02E0103F102F19DD01331032CBF84C
:1050200000500BF1080B072B4BF804AC259224938E
:10503000F0DD2046494623AAC34603F0D1FF0028ED
:105040007FF403AF103F259A249B102FE5DC0D9CC5
:1050500094460133BC44CBF80050072BCDF894C0E4
:105060002493CBF8047000F38F830BF1080B069B9D
:10507000DF0500F15482249BA4440F9A0133CDF83C
:1050800094C0CBF80020072BCBF80440249300F306
:1050900060830BF1080B069B5A0740D50B9B079AC0
:1050A0009C1A002C3BDD102C249B40F36B871025B1
:1050B0005C4F6246099E02E0103C102C19DD013362
:1050C0001032CBF800700BF1080B072B4BF8045C87
:1050D00025922493F0DD3046494623AAC34603F0C7
:1050E0007FFF00287FF4B1AE103C259A249B102C42
:1050F000E5DC94460133A444CBF80070072BCDF8CF
:1051000094C02493CBF8044009DD0998494623AAAA
:1051100003F066FF00287FF498AEDDF894C00A9B88
:10512000079A0B998A42ACBF9B185B180A93BCF193
:10513000000F40F01A830023C3462493E6E5194686
:1051400006981E7840F0040006900EE60893A446E8
:10515000069B13F0200300F0AE800C9F002307375E
:1051600027F0070202F10801D2E900450C918AE616
:105170001E7819462B22F8E51E78591C2A2E01F0BC
:105180000680A6F130000B46002409283FF6EEAD5C
:1051900004EB840413F8016B00EB4404A6F1300027
:1051A0000928F5D944EAE474E0E50893A446069B8F
:1051B0008DF86F209C0640F129810C9F073727F05E
:1051C0000707D7E9002307F1080114461D460C9193
:1051D000002A73F10003C0F22A819DF86F70012349
:1051E000CDF840C055E61E7806996C2E00F0578524
:1051F00041F0100106911946B7E50C9D2968084653
:105200000B912946002801F10401C0F24F850C9151
:1052100019461E78A9E5069941F040010691194604
:105220001E78A2E578A4400068A44000069941F0E9
:105230002001069119461E7897E50893069B8DF884
:105240006F209E0640F1A4840A990C9ACD17084657
:105250001368043229460C92C3E9000156E50C9A02
:10526000002508931368171D8DF86F500F93002BBE
:1052700000F07A86002C0F98C0F224862946224638
:1052800002F0EAFF002800F0DF860F9B0C97C41A9B
:1052900010959DF86F7024EAE4731195079322E648
:1052A0000893A446069B43F010030693069B13F055
:1052B00020037FF452AF069A12F0100240F052839E
:1052C000069B13F0400300F04D830C991346002514
:1052D0000A460C8804320C92D5E50893A446069B36
:1052E00043F010030693069B98063FF5C2AD069B5C
:1052F000D90640F132840C9A134604321C6800250A
:1053000001230C92BFE50893A446B74B8DF86F209C
:105310001593069B9A063ED50C9F073727F0070387
:1053200003F10802D3E900450C92069BDF0740F128
:10533000688254EA050300F06482069B30228DF8EF
:10534000716043F002038DF87020069302239AE502
:105350000C990120089300230A6804311F468DF838
:105360006F3010930446119326AB07900C918DF883
:1053700098200F93BBE5069941F008010691194664
:105380001E78F2E40893A446984B8DF86F2015938D
:10539000069B9A06C0D4069BDB0640F1EC830C9A70
:1053A00000251346146804330C93BEE71E78194693
:1053B000002A7FF4DAAC2022D7E4069941F00101FB
:1053C000069119461E78D0E4069941F080010691B5
:1053D00019461E78C9E4A6F13000002101EB8101D5
:1053E00013F8016B00EB4101A6F130000928F5D953
:1053F0000B91BBE40893A446069B8DF86F2043F005
:1054000010030693069B9C063FF5D7AE069BD80675
:1054100040F1D5830C9A13461C680433E5172246E5
:105420000C93002A2B4673F10003BFF6D6AE2D274E
:105430006442CDF840C04FF0010365EB45058DF89F
:105440006F7026E50C9F089307378DF86F2027F0C3
:10545000070303F108020C921A6813925B68139811
:1054600014931499079403F043FD0128DDF81CC040
:1054700040F05583139800220023149904F09CFBFC
:10548000002840F082859DF86F7003230698584AE3
:1054900000211C460793574B20F080001091472EA7
:1054A000D8BF1A46069011910F921CE50C9D302230
:1054B0000698A44629460893782340F00200043158
:1054C0002C681E468DF87130484B002506901593C8
:1054D00002230C918DF87020D5E408938DF86F208D
:1054E000002E3FF4ABAC0023012226A98DF8986072
:1054F00007921F460F9114468DF86F301093119349
:10550000F5E40998494623AA03F06AFD00287FF4D0
:105510009CAC9DF86F70C346DDF894C03FE5652EE6
:1055200040F3C9801398002200231499CDF834C0A9
:1055300004F038FBDDF834C0002800F06581249BBE
:1055400001220CF1010C2C491344CBF80420CDF8B6
:1055500094C0072BCBF80010249300F343830BF186
:10556000080B1D9B129A934203DB069BDE077FF517
:1055700092AD249B17990133169A8C44CBF80410F2
:10558000072BCBF80020CDF894C0249300F31D84A2
:105590000BF1080B129B5C1E002C7FF77CAD102CCE
:1055A000249B40F3BC851026144D6246099F03E0FE
:1055B000103C102C40F3C88101331032CBF800505E
:1055C0000BF1080B072B4BF8046C25922493EFDDAD
:1055D0003846494623AAC34603F002FD00287FF45B
:1055E00034AC259A249BE3E798A44000ACA4400087
:1055F0008CA4400088A44000C8A4400068A44000D7
:10560000012B00F04D81022B40F0E380C24615983B
:10561000230904F00F012A0943EA057315461C46C5
:10562000435C0AF8013D54EA0503F1D15346CDF835
:105630003CA0C3EB08044FE40B9B079A9F1A002F72
:105640007FF7D9AC102F249B40F3F9840D944FF0D1
:10565000100AC84D6246099C02E0103F102F19DD68
:1056600001331032CBF800500BF1080B072B4BF82D
:1056700004AC25922493F0DD2046494623AAC34674
:1056800003F0AEFC00287FF4E0AB103F259A249B8A
:10569000102FE5DC0D9C94460133BC44CBF8005040
:1056A000072BCDF894C02493CBF8047000F3FC8151
:1056B0000BF1080B9FE4129B0CF10106249C012BBB
:1056C00040F3C98101230F9A25961C44CBF8002092
:1056D000CBF80430072C249400F3DA810BF1080B8B
:1056E000179A0134169B1644072CCBF800302596E8
:1056F0002494CBF8042000F3BF810BF1080B0023A6
:1057000013980022149904F04DFA129B002840F0DF
:10571000DC80013B01340F9A1E44072C02F1010288
:1057200024942596CBF80020CBF8043000F30081B8
:105730000BF1080B199A01341FAB06EB020C072C76
:10574000CBF80420CDF894C02494CBF800307FF738
:10575000A0AC0998494623AA03F042FC00287FF434
:1057600074ABDDF894C0C34695E40998494623AA72
:1057700003F036FC00283FF4DEACFFF766BB1446AE
:10578000CDF83C80FFF7A8BB0998494623AA03F04F
:1057900027FC00287FF459ABDDF894C0C34666E4CB
:1057A0000998494623AA03F01BFC00287FF44DAB5F
:1057B000DDF894C0C3461AE40998494623AA03F0C9
:1057C0000FFC00287FF441ABDDF894C0C346FFF71F
:1057D000FABB4146E20804F00703E80842EA4572D2
:1057E00030330546144601F8013D54EA0502F1D173
:1057F000069A0F91D00700F16481C1EB0804FFF70E
:105800006BBB0223FFF73FBB1D9C002C40F3F681CE
:10581000129A119913468A42A8BF0B460F991C464B
:105820008F18002C0EDD249BA444CBF8001001330C
:10583000CDF894C0CBF80440072B249300F3538396
:105840000BF1080B119B002CA8BF1B1B002B1C4647
:1058500040F3A180102C249B40F36C841026454D0E
:105860006246DDF824A003E0103C102C40F3848055
:1058700001331032CBF800500BF1080B072B4BF81B
:10588000046C25922493EFDD5046494623AAC34673
:1058900003F0A6FB00287FF4D8AA259A249BE3E70F
:1058A000002D08BF0A2C80F01A810DF5807A303463
:1058B0000AF8414DCAEB0804CDF83CA0FFF70CBB39
:1058C0001C46CDF83C80FFF707BB5F1E002F7FF71B
:1058D00031AF102F274DC8BF4FF0100A03DC1CE07A
:1058E000103F102F19DD01341036CBF800500BF1AA
:1058F000080B072C4BF804AC25962494F0DD09988E
:10590000494623AAC34603F06BFB00287FF49DAAF7
:10591000103F259E249C102FE5DC01343E44CBF83B
:105920000050072C25962494CBF804707FF700AF25
:105930000998494623AA03F053FB00287FF485AA5F
:10594000259EC346249CF5E694460133A444CBF837
:105950000050072BCDF894C02493CBF804407FF778
:1059600098ABF6E60C9900250A460C6804320C92B6
:10597000FFF789BA68A4400094460133A444CBF8E9
:105980000050072BCDF894C02493CBF8044000F3CB
:10599000DF820BF1080B0F9A11991D9B0A441646E2
:1059A000129A934245DB069AD00742D4129ABC1B46
:1059B000D31A9C42A8BF1C46002C25460EDD249A13
:1059C000A444CBF800600132CDF894C0CBF8044079
:1059D000072A249200F3A0820BF1080B002DACBF24
:1059E0005C1B1C46002C7FF756AB102C249B40F30D
:1059F00096831026B14D6246099F02E0103C102CA0
:105A0000A2DD01331032CBF800500BF1080B072B4D
:105A10004BF8046C25922493F0DD3846494623AABE
:105A2000C34603F0DDFA00287FF40FAA259A249BD1
:105A3000E4E7249A1798013216998444CBF80400BD
:105A4000072ACBF80010CDF894C0249200F373829B
:105A50000BF1080BAAE7069BD9073FF533AE0123EC
:105A60000F9A25961C44CBF80020CBF80430072C65
:105A700024947FF75DAE5BE70998494623AA03F0BB
:105A8000AFFA00287FF4E1A9259EC346249C36E6A0
:105A90000998494623AA03F0A3FA00287FF4D5A960
:105AA000259EC346249C1BE60998494623AA03F079
:105AB00097FA00287FF4C9A9DDF894C0C346FFF720
:105AC0009ABA302B0F9B3FF4B4AD013B1A460F93AB
:105AD0003023C2EB080401F8013CFFF7FDB9C246D0
